:04000000CFEF3DF011
:107B9E00186A176A166A156A146A136A000EF86E66
:107BAE00000111EF3EF011D0000E046E000E036EB8
:107BBE0004BE05D0045006E10304D8B003D0034A36
:107BCE00042AF6D70106D8A0020602BE1200025001
:107BDE00EBE10104D8A01200E7D7154A162A16BE0B
:107BEE000CD0165004E1640E155CD8A006D0000E21
:107BFE00166E000E156E134A142A14BE120014507F
:107C0E0004E1640E135CD8A01200000E146E000E78
:107C1E00136E1200000E956E010E946EAAEC3EF0DD
:107C2E0082A0FCD7174A182A18BE0CD0185004E1AF
:107C3E000A0E175CD8A006D0F4EC3DF0000E186EBC
:107C4E00000E176E000E026E010E016EDAEC3DF0A4
:107C5E00E5D7000E066E02AE06D0016C021ED8B03D
:107C6E00022A010E066E04AE04D0036C041ED8B0B8
:107C7E00042A03500410D8B418D0010E056E04D097
:107C8E00D89003360436052A04AEFAD70350015CA9
:107C9E0004500258D8A004D00350015E0450025A7A
:107CAE00D89004320332052EF1D70650D8B404D042
:107CBE00016C021ED8B0022A01C001F002C002F00F
:107CCE001200000E066E04AE06D0036C041ED8B071
:107CDE00042A010E066E02AE06D0016C021ED8B04A
:107CEE00022A010E061A000E086E000E076E0350D1
:107CFE000410D8B41CD0010E056E04D0D8900336F3
:107D0E000436052A04AEFAD7D89007360836035043
:107D1E00015C04500258D8A005D00350015E0450F7
:107D2E00025A0780D89004320332052EEDD7065042
:107D3E00D8B404D0076C081ED8B0082A07C001F0CA
:107D4E0008C002F0120013C001F014C002F0000EC1
:107D5E00046E0A0E036E68EC3EF001C00BF002C01A
:107D6E000CF013C001F014C002F0000E046E0A0EE7
:107D7E00036E30EC3EF001C00DF002C00EF015C0E7
:107D8E0001F016C002F0000E046E0A0E036E68ECCF
:107D9E003EF001C00FF002C010F015C001F016C089
:107DAE0002F0000E046E0A0E036E30EC3EF001C0BF
:107DBE0011F002C012F015D03F0E11D0060E0FD0EA
:107DCE005B0E0DD04F0E0BD0660E09D06D0E07D088
:107DDE007D0E05D0070E03D07F0E01D06F0E836E81
:107DEE0027D00BC009F00CC00AF00A50000AD8A424
:107DFE001FD00950000AD8B4DFD7010AD8B4DED795
:107E0E00030AD8B4DDD7010AD8B4DCD7070AD8B430
:107E1E00DBD7010AD8B4DAD7030AD8B4D9D7010A06
:107E2E00D8B4D8D70F0AD8B4D7D7010AD8B4D6D772
:107E3E00828282948298829A829C000E026E010E39
:107E4E00016EDAEC3DF015D03F0E11D0060E0FD0BC
:107E5E005B0E0DD04F0E0BD0660E09D06D0E07D0F7
:107E6E007D0E05D0070E03D07F0E01D06F0E836EF0
:107E7E0027D00DC009F00EC00AF00A50000AD8A48F
:107E8E001FD00950000AD8B4DFD7010AD8B4DED704
:107E9E00030AD8B4DDD7010AD8B4DCD7070AD8B4A0
:107EAE00DBD7010AD8B4DAD7030AD8B4D9D7010A76
:107EBE00D8B4D8D70F0AD8B4D7D7010AD8B4D6D7E2
:107ECE00829282848298829A000E026E010E016E58
:107EDE00DAEC3DF015D03F0E11D0060E0FD05B0E32
:107EEE000DD04F0E0BD0660E09D06D0E07D07D0E45
:107EFE0005D0070E03D07F0E01D06F0E836E27D0F4
:107F0E000FC009F010C00AF00A50000AD8A41FD002
:107F1E000950000AD8B4DFD7010AD8B4DED7030A55
:107F2E00D8B4DDD7010AD8B4DCD7070AD8B4DBD76A
:107F3E00010AD8B4DAD7030AD8B4D9D7010AD8B40B
:107F4E00D8D70F0AD8B4D7D7010AD8B4D6D78292C9
:107F5E0082948288829A000E026E010E016EDAEC15
:107F6E003DF015D03F0E11D0060E0FD05B0E0DD08A
:107F7E004F0E0BD0660E09D06D0E07D07D0E05D0BC
:107F8E00070E03D07F0E01D06F0E836E27D00BC06D
:107F9E0009F00CC00AF00A50000AD8A41FD00950EC
:107FAE00000AD8B4DFD7010AD8B4DED7030AD8B492
:107FBE00DDD7010AD8B4DCD7070AD8B4DBD7010A5B
:107FCE00D8B4DAD7030AD8B4D9D7010AD8B4D8D7D7
:107FDE000F0AD8B4D7D7010AD8B4D6D782928294D2
:107FEE008298828A000E026E010E016EDAEC3DF06E
:027FFE0012006F
:020000040020DA
:08000000FFFFFFFFFFFFFFFF00
:020000040030CA
:0E00000000051F1FFF8385FF0FC00FE00F409C
:00000001FF
