:0400000083EF3FF05B
:107F0600026A016A000EF86E0001A9EF3FF082A234
:107F1600120002BE1200025003E10104D8A01200B2
:107F260082B2FED70106D8A00206120082A0120075
:107F360002BE06D0025009E1090E015CD8B012005B
:107F460082B0FED7014A022A12001200000E956E78
:107F5600030E946EB9EC3FF082A003D099EC3FF08B
:107F6600F9D782A2F7D78AEC3FF0F4D71ED03F0E9E
:107F7600836E1200060E836E12005B0E836E120075
:107F86004F0E836E1200660E836E12006D0E836EA8
:107F960012007D0E836E1200070E836E12007F0E96
:107FA600836E12006F0E836E120001C003F002C0D2
:107FB60004F00450000AD8A412000350000AD8B4F2
:107FC600D6D7010AD8B4D6D7030AD8B4D6D7010A69
:107FD600D8B4D6D7070AD8B4D6D7010AD8B4D6D7D4
:107FE600030AD8B4D6D7010AD8B4D6D70F0AD8B45C
:0A7FF600D6D7010AD8A41200D5D78F
:020000040020DA
:08000000FFFFFFFFFFFFFFFF00
:020000040030CA
:0E00000000051F1FFF8385FF0FC00FE00F409C
:00000001FF
