:04000000ADEF13F05D
:1008000000010000000A00000064000000E803008E
:100810000010270000A086010040420F008096983B
:100820000000E1F50500CA9A3B00803F002041002E
:10083000C842007A44401C4650C347247449971864
:100840004BBCBE4C6B6E4E03155079AD60F34971D5
:1008500000803FCDCC3DD7233C12833AB7D138C678
:100860002737388635C0D633CC2B32708930E7DB5A
:100870002EE53C1E42A20D54454D50455241545563
:0D08800052410025332E3066206F430000EA
:10088E00420E0001636F000E646F5DEF08F0250EDF
:10089E007819D8B405D07851B2EC13F05DEF08F0AA
:1008AE00000E00016C6F000E6B6F000E6A6F000E73
:1008BE00696F40C0F6FF41C0F7FF0800F5508CECA1
:1008CE0013F0D8A034D0000E00016C6F000E6B6FC9
:1008DE006BC00FF06CC010F0000E126E0A0E116E8F
:1008EE002EEC13F00FC06BF010C06CF0D00E456EF6
:1008FE00FF0E466E40C0F6FF41C0F7FF0800F550F0
:10090E00476E486A455047264650482247500001D8
:10091E006B2748506C23404A412A40C0F6FF41C025
:10092E00F7FF0800F5508CEC13F0D8B0D1D740C0CB
:10093E00F6FF41C0F7FF0800F5502E0AD8A430D0BC
:10094E0000016A8D404A412A000E776F000E766FC5
:10095E001CD076C00FF077C010F0000E126E0A0E8B
:10096E00116E2EEC13F040C0F6FF41C0F7FF0800E9
:10097E00F5500F26000E1022D00E0F240001766FB8
:10098E00FF0E1020776F404A412A40C0F6FF41C04B
:10099E00F7FF0800F5508CEC13F0D8A00AD0D9D789
:1009AE00000E0001776F000E766F6A8902D06A859D
:1009BE0012D040C0F6FF41C0F7FF404A412A08005E
:1009CE00F5CF78F000017851000AD8B41200660A0B
:1009DE00D8B4EDD76BD3070E6A15D8B4E5D26AA991
:1009EE0004D0000E776F060E766F63C0D9FF64C019
:1009FE00DAFFDECF73F0DECF74F0DDCF75F0030ECD
:100A0E006327000E642375AF11D073C001F074C05C
:100A1E0002F075C003F07AEC13F001C073F002C05F
:100A2E0074F003C075F0030E00016913000E726FAF
:100A3E00000E716F735174117511D8B486D0820E79
:100A4E00456EFF0E466E73C047F074C048F075C019
:100A5E0049F076C04AF0100E05D0D8904A3249328D
:100A6E0048324732E82EF9D747504524716F000EB1
:100A7E004620726F7107D8A0720771C00FF072C056
:100A8E0010F0000E126E030E116E2EEC13F00FC04E
:100A9E0071F010C072F071C007F072C008F0000E55
:100AAE000A6E0A0E096EABEC11F007C071F008C0A9
:100ABE0072F0000172AF03D07107D8A072077151A6
:100ACE0000086CEC08F024C06DF025C06EF026C056
:100ADE006FF06DC015F06EC016F06FC017F073C0DA
:100AEE0018F074C019F075C01AF0A5EC0FF015C00F
:100AFE006DF016C06EF017C06FF06DC001F06EC0D5
:100B0E0002F06FC003F0000E046E800E056E3F0EF5
:100B1E00066E63EC11F0D8B005D000017107D8A0B5
:100B2E00720713D06DC001F06EC002F06FC003F0FB
:100B3E00000E046E200E056E410E066E63EC11F073
:100B4E00D8A003D00001714B722B000177BF06D0E5
:100B5E0077511BE10D0E765DD8B017D073C02EF015
:100B6E0074C02FF075C030F07651FFEC0BF024C03E
:100B7E0031F025C032F026C033F028EC0DF02EC037
:100B8E0073F02FC074F030C075F0000172BF06D044
:100B9E00725120E10A0E715DD8B01CD073517411E0
:100BAE007511D8B456D073C02BF074C02CF075C02C
:100BBE002DF01FEC10F02B502C102D102E10D8A451
:100BCE0048D0000172BF45D0725104E1020E715D32
:100BDE00D8A03FD06DC001F06EC002F06FC003F020
:100BEE00700E046E890E056E400E066E63EC11F0EB
:100BFE00D8B003D00001F70E02D00001F80E712715
:100C0E00FF0E722371516CEC08F024C06DF025C0FC
:100C1E006EF026C06FF073C001F074C002F075C0A4
:100C2E0003F06DC004F06EC005F06FC006F0FEEC70
:100C3E000DF001C065F002C066F003C067F004C09D
:100C4E0068F0000E0001736F000E746F000E756F6A
:100C5E0033D073C02BF074C02CF075C02DF01FEC88
:100C6E0010F02BC065F02CC066F02DC067F02EC0C2
:100C7E0068F073C03AF074C03BF075C03CF065C0CC
:100C8E0009F066C00AF067C00BF068C00CF099EC72
:100C9E0012F009C03DF00AC03EF00BC03FF0C7ECA9
:100CAE0012F03AC073F03BC074F03CC075F0000E09
:100CBE000001726F000E716F010E786F0A0E7819B7
:100CCE00D8B418D07851040D010EF324F66E080E28
:100CDE00F420F76E0900F550655D0900F550665970
:100CEE000900F55067590900F5506859D8A002D08F
:100CFE00782BE4D778C045F0466A45BE4606765155
:100D0E00452677514622715145267251462245504D
:100D1E006B5F46506C5B76517711D8B403D06B077E
:100D2E00D8A06C07030E6915456E000E6A15466E47
:100D3E0045504610D8B408D004D0200EB2EC13F0B3
:100D4E0000016B07D8A06C076CBF05D06C51F5E1A4
:100D5E006B05D8B0F2D7030E6915456E000E6A15F5
:100D6E00466E45504610D8B44AD02D0EB2EC13F054
:100D7E0046D065C001F066C002F067C003F068C0DF
:100D8E0004F000017851040D010EF324F66E080EE6
:100D9E00F420F76E0900F5CF05F00900F5CF06F047
:100DAE000900F5CF07F00A00F5CF08F0EDEC11F0D1
:100DBE0001C06DF002C06EF003C06FF004C070F0A1
:100DCE006DC001F06EC002F06FC003F070C004F091
:100DDE000A0E056E000E066E000E076E000E086EF1
:100DEE0066EC12F001C06DF002C06EF003C06FF041
:100DFE0004C070F000016D51300FB2EC13F0000121
:100E0E0078077829D8B408D0B4D7300EB2EC13F0E6
:100E1E0000017107D8A0720772BF05D07251F5E1BB
:100E2E007105D8B0F2D777BF09D0775104E1090E1A
:100E3E00765DD8A003D0080E786F02D076C078F019
:100E4E007851765F000E78BFFF0E775B7851D8B47D
:100E5E0003D02E0EB2EC13F0000178516CEC08F0BA
:100E6E0024C060F025C061F026C062F073C018F097
:100E7E0074C019F075C01AF060C015F061C016F09C
:100E8E0062C017F0A5EC0FF015C02BF016C02CF0B9
:100E9E0017C02DF01FEC10F02BC065F02CC066F0C3
:100EAE002DC067F02EC068F06DD065C001F066C031
:100EBE0002F067C003F068C004F000017851040D21
:100ECE00010EF324F66E080EF420F76E0900F5CF2E
:100EDE0005F00900F5CF06F00900F5CF07F00A007E
:100EEE00F5CF08F0EDEC11F001C06DF002C06EF020
:100EFE0003C06FF004C070F06DC001F06EC002F060
:100F0E006FC003F070C004F00A0E056E000E066E80
:100F1E00000E076E000E086E66EC12F001C06DF04A
:100F2E0002C06EF003C06FF004C070F000016D518E
:100F3E00300FB2EC13F065C001F066C002F067C06E
:100F4E0003F068C004F000017851040D010EF32483
:100F5E00F66E080EF420F76E0900F5CF05F00900C5
:100F6E00F5CF06F00900F5CF07F00A00F5CF08F02F
:100F7E0066EC12F001C065F002C066F003C067F0C7
:100F8E0004C068F0000178077829D8B408D08DD74E
:100F9E00300EB2EC13F000017607D8A07707765129
:100FAE007711D8B483D0F4D776517711D8A408D05E
:100FBE006551661167116811D8A402D0764B772B54
:100FCE00800E78BF7F0E456E7651785D7751800A20
:100FDE004558D8B003D076C078F010D07751800A3B
:100FEE00456E7851765D800E78BF7F0E4558D8B02D
:100FFE0005D07851766F776B76BF77076B516C1192
:10100E00D8B40DD0030E6915456E000E6A15466EE6
:10101E0045504610D8B403D06B07D8A06C076AAD04
:10102E0013D06B51765D7751800A456E6C51800AF4
:10103E004558D8B005D076516B5F77516C5B04D0B4
:10104E00000E6C6F000E6B6F800E78BF7F0E456EBC
:10105E006B51785D6C51800A4558D8B007D07851E5
:10106E006B5F000E78BFFF0E6C5B04D0000E6C6FD2
:10107E00000E6B6F6B516C11D8B40BD0200EB2EC0E
:10108E0013F000016B07D8A06C076B516C11D8A43C
:10109E00F5D7030E6915456E000E6A15466E45505E
:1010AE004610D8B403D02D0EB2EC13F040C0F6FFAC
:1010BE0041C0F7FF404A412A0800F5CF78F0000101
:1010CE007851D8B412004EEF04F02A6E2AAE01D138
:1010DE002A6C2A50800A120FD8A091D0000E126EE0
:1010EE00030E116E000E0A6E0A0E096E000E046ECD
:1010FE00640E036E2A50016E026A01BE02062EECC9
:10110E0012F001C007F002C008F0ABEC11F0090EAE
:10111E0007240F6E000E0820106E2EEC13F0500EEA
:10112E000F24F66E080E1020F76E0900F5CF18F09A
:10113E000900F5CF19F00A00F5CF1AF0000E0A6E6D
:10114E00640E096E2A50076E086A07BE0806ABECDD
:10115E0011F0120E07240F6E000E0820106E000EF6
:10116E00126E030E116E2EEC13F0500E0F24F66E4F
:10117E00080E1020F76E0900F5CF15F00900F5CF17
:10118E0016F00A00F5CF17F0A5EC0FF015C027F0FA
:10119E0016C028F017C029F027C015F028C016F089
:1011AE0029C017F0000E126E030E116E000E046EA3
:1011BE000A0E036E2A50016E026A01BE02062EEC62
:1011CE0012F001C00FF002C010F02EEC13F0500E12
:1011DE000F24F66E080E1020F76E0900F5CF18F0EA
:1011EE000900F5CF19F00A00F5CF1AF0A5EC0FF0B3
:1011FE0015C024F016C025F017C026F012002A5094
:10120E00800A750FD8A053D0000E0A6E0A0E096E12
:10121E002A50076E086A07BE0806ABEC11F0090EDD
:10122E0007240F6E000E0820106E000E126E030EB5
:10123E00116E2EEC13F0500E0F24F66E080E1020C9
:10124E00F76E0900F5CF15F00900F5CF16F00A007C
:10125E00F5CF17F0000E126E030E116E000E046E17
:10126E000A0E036E2A50016E026A01BE02062EECB1
:10127E0012F001C00FF002C010F02EEC13F0500E61
:10128E000F24F66E080E1020F76E0900F5CF18F039
:10129E000900F5CF19F00A00F5CF1AF0A5EC0FF002
:1012AE0015C024F016C025F017C026F012002A50E3
:1012BE00030D500EF324F66E080EF420F76E09009F
:1012CE00F5CF24F00900F5CF25F00A00F5CF26F072
:1012DE0012002A50800A120FD8A091D0000E126E62
:1012EE00030E116E000E0A6E0A0E096E000E046ECB
:1012FE00640E036E2A50016E026A01BE02062EECC7
:10130E0012F001C007F002C008F0ABEC11F0090EAC
:10131E0007240F6E000E0820106E2EEC13F0290E0F
:10132E000F24F66E080E1020F76E0900F5CF18F098
:10133E000900F5CF19F00A00F5CF1AF0000E0A6E6B
:10134E00640E096E2A50076E086A07BE0806ABECDB
:10135E0011F0120E07240F6E000E0820106E000EF4
:10136E00126E030E116E2EEC13F0290E0F24F66E74
:10137E00080E1020F76E0900F5CF15F00900F5CF15
:10138E0016F00A00F5CF17F0A5EC0FF015C027F0F8
:10139E0016C028F017C029F027C015F028C016F087
:1013AE0029C017F0000E126E030E116E000E046EA1
:1013BE000A0E036E2A50016E026A01BE02062EEC60
:1013CE0012F001C00FF002C010F02EEC13F0290E37
:1013DE000F24F66E080E1020F76E0900F5CF18F0E8
:1013EE000900F5CF19F00A00F5CF1AF0A5EC0FF0B1
:1013FE0015C024F016C025F017C026F012002A5092
:10140E00800A750FD8A053D0000E0A6E0A0E096E10
:10141E002A50076E086A07BE0806ABEC11F0090EDB
:10142E0007240F6E000E0820106E000E126E030EB3
:10143E00116E2EEC13F0290E0F24F66E080E1020EE
:10144E00F76E0900F5CF15F00900F5CF16F00A007A
:10145E00F5CF17F0000E126E030E116E000E046E15
:10146E000A0E036E2A50016E026A01BE02062EECAF
:10147E0012F001C00FF002C010F02EEC13F0290E86
:10148E000F24F66E080E1020F76E0900F5CF18F037
:10149E000900F5CF19F00A00F5CF1AF0A5EC0FF000
:1014AE0015C024F016C025F017C026F012002A50E1
:1014BE00030D290EF324F66E080EF420F76E0900C4
:1014CE00F5CF24F00900F5CF25F00A00F5CF26F070
:1014DE00120004040510D8A407D006040710D8A4DF
:1014EE0003D0800E54EC13F004040510D8A408D0D9
:1014FE00020E06180710D8A403D0810E54EC13F078
:10150E0004040510D8A408D0030E06180710D8A49A
:10151E0003D0820E54EC13F004040510D8A408D0A6
:10152E00040E06180710D8A403D0830E54EC13F043
:10153E0004040510D8A408D0050E06180710D8A468
:10154E0003D0840E54EC13F004040510D8A408D074
:10155E00060E06180710D8A403D0850E54EC13F00F
:10156E0004040510D8A408D0070E06180710D8A436
:10157E0003D0860E54EC13F004040510D8A408D042
:10158E00080E06180710D8A403D0870E54EC13F0DB
:10159E0004040510D8A408D0090E06180710D8A404
:1015AE0003D0880E54EC13F004040510D8A408D010
:1015BE000A0E06180710D8A403D0890E54EC13F0A7
:1015CE0004040510D8A408D00B0E06180710D8A4D2
:1015DE0003D08A0E54EC13F004040510D8A408D0DE
:1015EE000C0E06180710D8A403D08B0E54EC13F073
:1015FE0004040510D8A408D00D0E06180710D8A4A0
:10160E0003D08C0E54EC13F004040510D8A408D0AB
:10161E000E0E06180710D8A403D08D0E54EC13F03E
:10162E0004040510D8A408D00F0E06180710D8A46D
:10163E0003D08E0E54EC13F004040510D8A408D079
:10164E00100E06180710D8A403D08F0E54EC13F00A
:10165E00020E04180510D8A407D006040710D8A44B
:10166E0003D0C00E54EC13F0020E04180510D8A4CB
:10167E0008D0020E06180710D8A403D0C10E54ECE1
:10168E0013F0020E04180510D8A408D0030E061885
:10169E000710D8A403D0C20E54EC13F0020E041897
:1016AE000510D8A408D0040E06180710D8A403D02D
:1016BE00C30E54EC13F0020E04180510D8A408D073
:1016CE00050E06180710D8A403D0C40E54EC13F060
:1016DE00020E04180510D8A408D0060E061807101E
:1016EE00D8A403D0C50E54EC13F0020E0418051046
:1016FE00D8A408D0070E06180710D8A403D0C60E1B
:10170E0054EC13F0020E04180510D8A408D0080EDD
:10171E0006180710D8A403D0C70E54EC13F0020E0F
:10172E0004180510D8A408D0090E06180710D8A45E
:10173E0003D0C80E54EC13F0020E04180510D8A4F2
:10174E0008D00A0E06180710D8A403D0C90E54EC00
:10175E0013F0020E04180510D8A408D00B0E0618AC
:10176E000710D8A403D0CA0E54EC13F0020E0418BE
:10177E000510D8A408D00C0E06180710D8A403D054
:10178E00CB0E54EC13F0020E04180510D8A408D09A
:10179E000D0E06180710D8A403D0CC0E54EC13F07F
:1017AE00020E04180510D8A408D00E0E0618071045
:1017BE00D8A403D0CD0E54EC13F0020E041805106D
:1017CE00D8A408D00F0E06180710D8A403D0CE0E3A
:1017DE0054EC13F0020E04180510D8A41200100ECB
:1017EE0006180710D8A41200CF0E54EC13F01200F6
:1017FE002D6E6D0E2D649FD0000E126E030E116EA7
:10180E00000E0A6E0A0E096E000E046E640E036E52
:10181E002DC001F0026A2EEC12F001C007F002C0DA
:10182E0008F0ABEC11F0090E07240F6E000E082025
:10183E00106E2EEC13F0500E0F24F66E080E1020C4
:10184E00F76E0900F5CF18F00900F5CF19F00A0070
:10185E00F5CF1AF0000E0A6E640E096E2DC007F059
:10186E00086AABEC11F0120E07240F6E000E082062
:10187E00106E000E126E030E116E2EEC13F0500E43
:10188E000F24F66E080E1020F76E0900F5CF15F036
:10189E000900F5CF16F00A00F5CF17F0A5EC0FF002
:1018AE0015C02AF016C02BF017C02CF0000E126EC9
:1018BE00030E116E000E046E0A0E036E2DC001F0A3
:1018CE00026A2EEC12F001C00FF002C010F02EECE6
:1018DE0013F0500E0F24F66E080E1020F76E09004E
:1018EE00F5CF18F00900F5CF19F00A00F5CF1AF070
:1018FE002AC015F02BC016F02CC017F0A5EC0FF077
:10190E0015C027F016C028F017C029F027C015F013
:10191E0028C016F029C017F0000E186E000E196EB2
:10192E003F0E1A6EA5EC0FF015C024F016C025F070
:10193E0017C026F012000A0E2D6463D0000E126E30
:10194E00030E116E000E046E0A0E036E2DC001F012
:10195E00026A2EEC12F001C00FF002C010F02EEC55
:10196E0013F0500E0F24F66E080E1020F76E0900BD
:10197E00F5CF18F00900F5CF19F00A00F5CF1AF0DF
:10198E00000E0A6E0A0E096E2DC007F0086AABEC47
:10199E0011F0090E07240F6E000E0820106E000EB7
:1019AE00126E030E116E2EEC13F0500E0F24F66E07
:1019BE00080E1020F76E0900F5CF15F00900F5CFCF
:1019CE0016F00A00F5CF17F0A5EC0FF015C02AF0AF
:1019DE0016C02BF017C02CF02AC015F02BC016F035
:1019EE002CC017F0000E186E000E196E3F0E1A6EF8
:1019FE00A5EC0FF015C024F016C025F017C026F088
:101A0E0012002D50030D500EF324F66E080EF42026
:101A1E00F76E0900F5CF15F00900F5CF16F00A00A4
:101A2E00F5CF17F0000E186E000E196E3F0E1A6EDF
:101A3E00A5EC0FF015C024F016C025F017C026F047
:101A4E00120030C034F0356A366A2F34343601E372
:101A5E0035803450396E33C034F0356A366A3234DC
:101A6E00343601E335803450386E3950D8B40BD04B
:101A7E003850395CD8B00ED0395000083824346E46
:101A8E00180E346407D031C02EF032C02FF033C0A0
:101A9E0030F012003850D8B40BD03950385CD8B072
:101AAE000ED0385000083924346E180E346407D026
:101ABE002EC02EF02FC02FF030C030F01200060EC8
:101ACE00376E30BE378E33BE378C2F8EFF0E2E16EE
:101ADE00FF0E2F16000E3016328EFF0E3116FF0E31
:101AEE003216000E33163850395CD8B01BD0D89051
:101AFE00313632363336380639503818D8B40DD020
:101B0E00370637C034F0070E3416D8B406D0EFD7E8
:101B1E00D89030322F322E32392A38503918D8B464
:101B2E001FD0F6D73950385CD8B01AD0D8902E3690
:101B3E002F363036390639503818D8B40DD037060E
:101B4E0037C034F0070E3416D8B406D0EFD7D8907D
:101B5E00333232323132382A38503918D8A4F7D7C6
:101B6E0037AE0CD0FF0E2E1AFF0E2F1AFF0E301AA4
:101B7E00010E2E26000E2F22000E302237AC0CD076
:101B8E00FF0E311AFF0E321AFF0E331A010E3126D6
:101B9E00000E3222000E3322000E376E2E503126EA
:101BAE002F5032223050332233AE0ED0FF0E311A68
:101BBE00FF0E321AFF0E331A010E3126000E32229C
:101BCE00000E3322010E376E31C001F032C002F02A
:101BDE0033C003F039C004F037C005F00CEC11F03F
:101BEE0001C02EF002C02FF003C030F0120003C06F
:101BFE0007F0086A096A0234073601E308800750C5
:101C0E000F6E0F50D8A409D0000E016E000E026E9A
:101C1E00000E036E000E046E120006C007F0086A76
:101C2E00096A0534073601E3088007500E6E0E5020
:101C3E00D8A409D0000E016E000E026E000E036EC7
:101C4E00000E046E1200028EFF0E0116FF0E02161B
:101C5E00000E0316058EFF0E0416FF0E0516000E5F
:101C6E000616000E0A6E000E0B6E000E0C6E000EA7
:101C7E000D6E7F0E0F5E0E50980F0F5E180E0E6ECD
:101C8E00D8900A360B360C360D360450015C0550D2
:101C9E00025806500358D8A007D00450015E0550D4
:101CAE00025A0650035A0A80D8900136023603367D
:101CBE000E2EE6D70FAE16D00F50800A970FD8B063
:101CCE0009D0000E016E000E026E000E036E000EA5
:101CDE00046E1200D8900D320C320B320A320F3EC7
:101CEE00F9D715D0170E0F640FD0000E016E000E2F
:101CFE00026E000E036E000E046E1200D8900A36AD
:101D0E000B360C360D360F060F50D8A4F7D70AC077
:101D1E0001F00BC002F00CC003F00DC004F0120075
:101D2E00033404340C6E0C50D8A409D0000E016E8E
:101D3E00000E026E000E036E000E046E12000634CC
:101D4E0007340B6E0B50D8A409D0000E016E000E96
:101D5E00026E000E036E000E046E1200038EFF0E56
:101D6E000116FF0E0216FF0E0316000E0416068E47
:101D7E00FF0E0416FF0E0516FF0E0616000E0716B2
:101D8E00000E076E000E086E000E096E000E0A6E33
:101D9E007F0E0C5E0B50A00F0C5E200E0B6ED890BB
:101DAE000736083609360A360450015C05500258CB
:101DBE000650035807500458D8A009D00450015EAD
:101DCE000550025A0650035A0750045A0780D890FD
:101DDE0001360236033604360B2EE1D70CAE16D082
:101DEE000C50800A9F0FD8B009D0000E016E000E65
:101DFE00026E000E036E000E046E1200D8900A32B0
:101E0E000932083207320C3EF9D715D01F0E0C647A
:101E1E000FD0000E016E000E026E000E036E000E4D
:101E2E00046E1200D8900736083609360A360C06AC
:101E3E000C50D8A4F7D707C001F008C002F009C0B3
:101E4E0003F00AC004F01200A6EC13F09BEC13F0A2
:101E5E0041EC13F0000E056E010E046E000E076EBF
:101E6E00010E066E70EC0AF0770E406E080E416E93
:101E7E0047EC04F067EC13F001C04BF002C04CF0DD
:101E8E004BC009F04CC00AF0E7EC12F009C04DF05F
:101E9E000AC04EF00BC04FF04DC015F04EC016F0FC
:101EAE004FC017F0000E186EA00E196E3B0E1A6E74
:101EBE00A5EC0FF015C04DF016C04EF017C04FF048
:101ECE004DC009F04EC00AF04FC00BF0D70E0C6E8D
:101EDE00230E0D6E3C0E0E6E99EC10F009C04DF0F7
:101EEE000AC04EF00BC04FF0000E056E020E046ECF
:101EFE00000E076E010E066E70EC0AF0830E406E39
:101F0E00080E416E4DC042F04EC043F04FC044F03B
:101F1E0047EC04F04DC001F04EC002F04FC003F08C
:101F2E00000E046EC80E056E410E066E63EC11F0C7
:101F3E00D8A002D082849ED782949CD717C01BF063
:101F4E001C6A1D6A16341B3601E31C801B501E6E64
:101F5E001E50D8A407D0000E156E000E166E000E81
:101F6E00176E12001AC01BF01C6A1D6A19341B363C
:101F7E0001E31C801B50236E2350D8A407D0000E03
:101F8E00156E000E166E000E176E120023507B0F8C
:101F9E001E2617C023F01A50231A800E2316168EF3
:101FAE00198EFF0E1816FF0E1916000E1A16000EB9
:101FBE001F6E000E206E000E216E070E226E15A0F3
:101FCE0006D018501F26195020221A502122D890C0
:101FDE00173216321532D890183619361A36222E76
:101FEE00EED7090E226E15A006D018501F261950D6
:101FFE0020221A502122D890173216321532D8903C
:10200E00213220321F32222EEED71FC001F020C007
:10201E0002F021C003F01EC004F023C005F00CEC4A
:10202E0011F001C015F002C016F003C017F0120037
:10203E002DC02FF0306A316A2C342F3601E33080F8
:10204E002F50396E3950D8A409D0000E2B6E000EC9
:10205E002C6E000E2D6E000E2E6E1200170E2F6EB1
:10206E002BC030F02CC031F02DC032F02F28336E43
:10207E0004D0D890323231323032332EFAD730503B
:10208E00346E2C8EFF0E2B16FF0E2C16000E2D16F8
:10209E002B50356E2C50366E2D50376E386A8E0E94
:1020AE00395E39AE16D03950800A8F0FD8B009D0AC
:1020BE00000E2B6E000E2C6E000E2D6E000E2E6E70
:1020CE001200D8903832373236323532393EF9D79F
:1020DE0015D0170E39640FD0000E2B6E000E2C6E1D
:1020EE00000E2D6E000E2E6E1200D890353636363E
:1020FE003736383639063950D8A4F7D73450D8B4D5
:10210E0008D0381E371E361E356C000E362237228A
:10211E00382235C02BF036C02CF037C02DF038C029
:10212E002EF012000BC00FF0106A116A0A340F362F
:10213E0001E310800F50166E1650D8A407D0000E73
:10214E00096E000E0A6E000E0B6E12000EC00FF01E
:10215E00106A116A0D340F3601E310800F50176E9E
:10216E001750D8A407D0000E096E000E0A6E000E8E
:10217E000B6E1200000E136E000E146E000E156E16
:10218E001750890F165E0BC017F00E50171A800EDF
:10219E0017160A8EFF0E0916FF0E0A16000E0B16E4
:1021AE000D8EFF0E0C16FF0E0D16000E0E16180ECF
:1021BE00126ED8901336143615360C50095C0D502D
:1021CE000A580E500B58D8A007D00C50095E0D506F
:1021DE000A5A0E500B5A1380D89009360A360B360F
:1021EE00122EE7D713C001F014C002F015C003F091
:1021FE0016C004F017C005F00CEC11F001C009F088
:10220E0002C00AF003C00BF012000450D8B405D07F
:10221E00015002100310D8A40CD0000E016E000E57
:10222E00026E000E036E1200042AD89003320232A0
:10223E000132000E0114066E000E0214076EFE0E21
:10224E000314086E065007100810D8B40CD0ECD743
:10225E00042A010E0126000E0222000E0322D8903F
:10226E00033202320132000E0114066E000E021409
:10227E00076EFF0E0314086E065007100810D8B430
:10228E0006D0E6D70406D89001360236033602BED3
:10229E0003D0020E0460F6D704A0029ED89004323A
:1022AE00045003120550D8A4038E01C001F002C0E1
:1022BE0002F003C003F0120003AE16D001C007F007
:1022CE0002C008F003C009F0071E081E091E072AE7
:1022DE00000E08220922000E0724016E000E0820AF
:1022EE00026E800E0920036E06AE16D004C007F0F3
:1022FE0005C008F006C009F0071E081E091E072AB1
:10230E00000E08220922000E0724046E000E08207B
:10231E00056E800E0920066E000E011A000E021ABE
:10232E00800E031A000E041A000E051A800E061AED
:10233E000450015C0550025806500358D8B002D024
:10234E00D8901200D8801200000E0C6E0AAE06D085
:10235E00096C0A1ED8B00A2A010E0C6E08AE06D001
:10236E00076C081ED8B0082A010E0C1A000E0E6E4D
:10237E00000E0D6E09500A10D8B41CD0010E0B6E53
:10238E0004D0D89009360A360B2A0AAEFAD7D8905E
:10239E000D360E360950075C0A500858D8A005D0E5
:1023AE000950075E0A50085A0D80D8900A32093239
:1023BE000B2EEDD70C50D8B404D00D6C0E1ED8B029
:1023CE000E2A0DC007F00EC008F01200000E096EA6
:1023DE00000E0A6E000E0B6E000E0C6E05500610EF
:1023EE0007100810D8B42AD0010E0D6E06D0D89062
:1023FE0005360636073608360D2A08AEF8D7D890B9
:10240E0009360A360B360C360550015C065002585A
:10241E000750035808500458D8A009D00550015E43
:10242E000650025A0750035A0850045A0980D89091
:10243E0008320732063205320D2EE1D709C001F0FF
:10244E000AC002F00BC003F00CC004F01200000E24
:10245E00066E02AE06D0016C021ED8B0022A010E24
:10246E00066E04AE04D0036C041ED8B0042A0350CA
:10247E000410D8B418D0010E056E04D0D8900336CF
:10248E000436052A04AEFAD70350015C04500258F4
:10249E00D8A004D00350015E0450025AD8900432E2
:1024AE000332052EF1D70650D8B404D0016C021EAB
:1024BE00D8B0022A01C001F002C002F0120005508D
:1024CE00061007100810D8B424D0010E096E06D0DD
:1024DE00D8900536063607360836092A08AEF8D7DC
:1024EE000550015C06500258075003580850045816
:1024FE00D8A008D00550015E0650025A0750035A64
:10250E000850045AD8900832073206320532092E86
:10251E00E7D701C001F002C002F003C003F004C00F
:10252E0004F012008E0E116E06D0D8900C320B32C3
:10253E000A320932112A000E09140D6E000E0A1409
:10254E000E6E000E0B140F6EFF0E0C14106E0D504F
:10255E000E100F101010D8A4E8D709C001F00AC051
:10256E0002F00BC003F011C004F0000E056E0CEC6F
:10257E0011F001C009F002C00AF003C00BF0120006
:10258E003D503E103F10D8B406D0000E3D1A000E3E
:10259E003E1A800E3F1A3AC02EF03BC02FF03CC0C0
:1025AE0030F03DC031F03EC032F03FC033F028EC89
:1025BE000DF02EC03AF02FC03BF030C03CF01200B0
:1025CE00000E0C6E0AAE06D0096C0A1ED8B00A2A8E
:1025DE00010E0C6E09C001F00AC002F0036A8E0EE5
:1025EE00046E0CC005F00CEC11F001C009F002C035
:1025FE000AF003C00BF012000FD0D59AD596D580F5
:10260E00D592D594F294D58C000ED66ED58EF2A4BA
:10261E00FED70106D8A0020602BE12000250EDE15E
:10262E000104D8A01200E9D7036E03C083FF828095
:10263E008282000E026E010E016E03EC13F0829286
:10264E00000E026E010E016E03EC13F012000F501D
:10265E001102F3CF13F0F4CF14F00F501202F35017
:10266E00142610501102F350142613C00FF014C08C
:10267E0010F01200380E54EC13F00C0E54EC13F054
:10268E00060E54EC13F0010E54EC13F0000E026E15
:10269E00050E016E03EC13F01200036E03C083FFF0
:1026AE0082908282000E026E010E016E03EC13F018
:1026BE008292000E026E010E016E03EC13F01200F8
:1026CE00C282C2B2FED7C350C4CF03F0046A03C0A5
:1026DE0004F0036A0310056E0450066E05C001F087
:1026EE0006C002F01200015002100310D8B406D03A
:1026FE00000E011A000E021A800E031A01C001F01C
:10270E0002C002F003C003F01200036E000E026E50
:10271E003A0E036005D02F0E036402D0010E026E36
:10272E0002C001F001301200700E946E000E956E14
:10273E00100E926E000E826E000E836E1200010E4F
:10274E00C26E0E0EC16E960EC06E1200000EF86EA8
:10275E0000012BEF0FF0046E04501BEC13F012006F
:020000040020DA
:08000000FFFFFFFFFFFFFFFF00
:020000040030CA
:0E00000000001F1EFF8385FF0FC00FE00F40A2
:00000001FF
