:040000006BEF12F0A0
:1008000000010000000A00000064000000E803008E
:100810000010270000A086010040420F008096983B
:100820000000E1F50500CA9A3B00803F002041002E
:10083000C842007A44401C4650C347247449971864
:100840004BBCBE4C6B6E4E03155079AD60F34971D5
:1008500000803FCDCC3DD7233C12833AB7D138C678
:100860002737388635C0D633CC2B32708930E7DB5A
:100870002EE53C1E42A20D524553495354454E436A
:100880004941002566206F686D730000420E00012B
:10089000636F000E646FE4D2250E7619D8B404D0CD
:1008A000765188EC12F0DCD2000E0001666F000E6B
:1008B000656F02D0668511D040C0F6FF41C0F7FFDA
:1008C000404A412A0800F5CF76F07651000AD8B4A4
:1008D0001200660AD8B4EED7C3D2070E6615D8B494
:1008E000B2D2000E686F060E676F63C0D9FF64C096
:1008F000DAFFDECF73F0DECF74F0DDCF75F0030EDC
:100900006327000E642375AF11D073C001F074C06B
:1009100002F075C003F059EC12F001C073F002C090
:1009200074F003C075F0030E00016513000E6E6FC6
:10093000000E6D6F735174117511D8B486D0820E8C
:10094000456EFF0E466E73C047F074C048F075C028
:1009500049F076C04AF0100E05D0D8904A3249329C
:1009600048324732E82EF9D7475045246D6F000EC4
:1009700046206E6F6D07D8A06E076DC00FF06EC079
:1009800010F0000E126E030E116E0DEC12F00FC07F
:100990006DF010C06EF06DC007F06EC008F0000E74
:1009A0000A6E0A0E096E8AEC10F007C06DF008C0DE
:1009B0006EF000016EAF03D06D07D8A06E076D51C9
:1009C00000083EEC07F024C06FF025C070F026C090
:1009D00071F06FC015F070C016F071C017F073C0E1
:1009E00018F074C019F075C01AF084EC0EF015C040
:1009F0006FF016C070F017C071F06FC001F070C0DA
:100A000002F071C003F0000E046E800E056E3F0E02
:100A1000066E42EC10F0D8B005D000016D07D8A0EA
:100A20006E0713D06FC001F070C002F071C003F008
:100A3000000E046E200E056E410E066E42EC10F0A4
:100A4000D8A003D000016D4B6E2B000168BF06D00B
:100A500068511BE10D0E675DD8B017D073C02EF042
:100A600074C02FF075C030F06751D1EC0AF024C08B
:100A700031F025C032F026C033F0FAEC0BF02EC076
:100A800073F02FC074F030C075F000016EBF06D057
:100A90006E5120E10A0E6D5DD8B01CD073517411F7
:100AA0007511D8B456D073C02BF074C02CF075C03B
:100AB0002DF0FEEC0EF02B502C102D102E10D8A483
:100AC00048D000016EBF45D06E5104E1020E6D5D4D
:100AD000D8A03FD06FC001F070C002F071C003F029
:100AE000700E046E890E056E400E066E42EC10F01C
:100AF000D8B003D00001F70E02D00001F80E6D2728
:100B0000FF0E6E236D513EEC07F024C06FF025C040
:100B100070F026C071F073C001F074C002F075C0AF
:100B200003F06FC004F070C005F071C006F0D0ECA7
:100B30000CF001C069F002C06AF003C06BF004C0A1
:100B40006CF0000E0001736F000E746F000E756F75
:100B500033D073C02BF074C02CF075C02DF0FEECB8
:100B60000EF02BC069F02CC06AF02DC06BF02EC0C7
:100B70006CF073C03AF074C03BF075C03CF069C0D3
:100B800009F06AC00AF06BC00BF06CC00CF078EC96
:100B900011F009C03DF00AC03EF00BC03FF0A6ECDA
:100BA00011F03AC073F03BC074F03CC075F0000E19
:100BB00000016E6F000E6D6F010E766F0A0E7619D2
:100BC000D8B418D07651040D010EF324F66E080E39
:100BD000F420F76E0900F550695D0900F5506A5977
:100BE0000900F5506B590900F5506C59D8A002D096
:100BF000762BE4D7030E6515456E000E6615466E1E
:100C000045504610D8B44AD02D0E88EC12F046D08C
:100C100069C001F06AC002F06BC003F06CC004F060
:100C200000017651040D010EF324F66E080EF42037
:100C3000F76E0900F5CF05F00900F5CF06F00900C1
:100C4000F5CF07F00A00F5CF08F0CCEC10F001C0AA
:100C50006FF002C070F003C071F004C072F06FC09A
:100C600001F070C002F071C003F072C004F00A0E0F
:100C7000056E000E066E000E076E000E086E45EC47
:100C800011F001C06FF002C070F003C071F004C039
:100C900072F000016F51300F88EC12F000017607FE
:100CA0007629D8B408D0B4D7300E88EC12F0000101
:100CB0006D07D8A06E076EBF05D06E51F5E16D05CA
:100CC000D8B0F2D768BF09D0685104E1090E675D5A
:100CD000D8A003D0080E766F02D067C076F07651A8
:100CE000675F000E76BFFF0E685B7651D8B403D005
:100CF0002E0E88EC12F0000176513EEC07F024C075
:100D000060F025C061F026C062F073C018F074C0B6
:100D100019F075C01AF060C015F061C016F062C01D
:100D200017F084EC0EF015C02BF016C02CF017C095
:100D30002DF0FEEC0EF02BC069F02CC06AF02DC037
:100D40006BF02EC06CF06DD069C001F06AC002F08B
:100D50006BC003F06CC004F000017651040D010E6D
:100D6000F324F66E080EF420F76E0900F5CF05F0B7
:100D70000900F5CF06F00900F5CF07F00A00F5CF1E
:100D800008F0CCEC10F001C06FF002C070F003C0AE
:100D900071F004C072F06FC001F070C002F071C059
:100DA00003F072C004F00A0E056E000E066E000E0F
:100DB000076E000E086E45EC11F001C06FF002C026
:100DC00070F003C071F004C072F000016F51300F79
:100DD00088EC12F069C001F06AC002F06BC003F049
:100DE0006CC004F000017651040D010EF324F66E80
:100DF000080EF420F76E0900F5CF05F00900F5CFD5
:100E000006F00900F5CF07F00A00F5CF08F045EC31
:100E100011F001C069F002C06AF003C06BF004C0B9
:100E20006CF0000176077629D8B408D08DD7300E43
:100E300088EC12F000016707D8A0680767516811B5
:100E4000D8B40ED0F4D7030E6515456E000E6615A6
:100E5000466E45504610D8B403D02D0E88EC12F0E3
:100E600040C0F6FF41C0F7FF404A412A0800F5CFD5
:100E700076F000017651D8B412000ED52A6E2AAE53
:100E800001D12A6C2A50800A120FD8A091D0000EEE
:100E9000126E030E116E000E0A6E0A0E096E000E1F
:100EA000046E640E036E2A50016E026A01BE0206D1
:100EB0000DEC11F001C007F002C008F08AEC10F050
:100EC000090E07240F6E000E0820106E0DEC12F0B4
:100ED000500E0F24F66E080E1020F76E0900F5CFA5
:100EE00018F00900F5CF19F00A00F5CF1AF0000E3E
:100EF0000A6E640E096E2A50076E086A07BE08065D
:100F00008AEC10F0120E07240F6E000E0820106EEF
:100F1000000E126E030E116E0DEC12F0500E0F2427
:100F2000F66E080E1020F76E0900F5CF15F00900D7
:100F3000F5CF16F00A00F5CF17F084EC0EF015C0CF
:100F400027F016C028F017C029F027C015F028C0D8
:100F500016F029C017F0000E126E030E116E000E6F
:100F6000046E0A0E036E2A50016E026A01BE02066A
:100F70000DEC11F001C00FF002C010F00DEC12F0FA
:100F8000500E0F24F66E080E1020F76E0900F5CFF4
:100F900018F00900F5CF19F00A00F5CF1AF084EC2B
:100FA0000EF015C024F016C025F017C026F0120070
:100FB0002A50800A750FD8A053D0000E0A6E0A0E70
:100FC000096E2A50076E086A07BE08068AEC10F000
:100FD000090E07240F6E000E0820106E000E126E10
:100FE000030E116E0DEC12F0500E0F24F66E080E6B
:100FF0001020F76E0900F5CF15F00900F5CF16F0B7
:101000000A00F5CF17F0000E126E030E116E000EDF
:10101000046E0A0E036E2A50016E026A01BE0206B9
:101020000DEC11F001C00FF002C010F00DEC12F049
:10103000500E0F24F66E080E1020F76E0900F5CF43
:1010400018F00900F5CF19F00A00F5CF1AF084EC7A
:101050000EF015C024F016C025F017C026F01200BF
:101060002A50030D500EF324F66E080EF420F76E8E
:101070000900F5CF24F00900F5CF25F00A00F5CFDF
:1010800026F012002A50800A120FD8A091D0000E2C
:10109000126E030E116E000E0A6E0A0E096E000E1D
:1010A000046E640E036E2A50016E026A01BE0206CF
:1010B0000DEC11F001C007F002C008F08AEC10F04E
:1010C000090E07240F6E000E0820106E0DEC12F0B2
:1010D000290E0F24F66E080E1020F76E0900F5CFCA
:1010E00018F00900F5CF19F00A00F5CF1AF0000E3C
:1010F0000A6E640E096E2A50076E086A07BE08065B
:101100008AEC10F0120E07240F6E000E0820106EED
:10111000000E126E030E116E0DEC12F0290E0F244C
:10112000F66E080E1020F76E0900F5CF15F00900D5
:10113000F5CF16F00A00F5CF17F084EC0EF015C0CD
:1011400027F016C028F017C029F027C015F028C0D6
:1011500016F029C017F0000E126E030E116E000E6D
:10116000046E0A0E036E2A50016E026A01BE020668
:101170000DEC11F001C00FF002C010F00DEC12F0F8
:10118000290E0F24F66E080E1020F76E0900F5CF19
:1011900018F00900F5CF19F00A00F5CF1AF084EC29
:1011A0000EF015C024F016C025F017C026F012006E
:1011B0002A50800A750FD8A053D0000E0A6E0A0E6E
:1011C000096E2A50076E086A07BE08068AEC10F0FE
:1011D000090E07240F6E000E0820106E000E126E0E
:1011E000030E116E0DEC12F0290E0F24F66E080E90
:1011F0001020F76E0900F5CF15F00900F5CF16F0B5
:101200000A00F5CF17F0000E126E030E116E000EDD
:10121000046E0A0E036E2A50016E026A01BE0206B7
:101220000DEC11F001C00FF002C010F00DEC12F047
:10123000290E0F24F66E080E1020F76E0900F5CF68
:1012400018F00900F5CF19F00A00F5CF1AF084EC78
:101250000EF015C024F016C025F017C026F01200BD
:101260002A50030D290EF324F66E080EF420F76EB3
:101270000900F5CF24F00900F5CF25F00A00F5CFDD
:1012800026F0120004040510D8A407D006040710A5
:10129000D8A403D0800E33EC12F004040510D8A4B7
:1012A00008D0020E06180710D8A403D0810E33EC24
:1012B00012F004040510D8A408D0030E0618071075
:1012C000D8A403D0820E33EC12F004040510D8A485
:1012D00008D0040E06180710D8A403D0830E33ECF0
:1012E00012F004040510D8A408D0050E0618071043
:1012F000D8A403D0840E33EC12F004040510D8A453
:1013000008D0060E06180710D8A403D0850E33ECBB
:1013100012F004040510D8A408D0070E0618071010
:10132000D8A403D0860E33EC12F004040510D8A420
:1013300008D0080E06180710D8A403D0870E33EC87
:1013400012F004040510D8A408D0090E06180710DE
:10135000D8A403D0880E33EC12F004040510D8A4EE
:1013600008D00A0E06180710D8A403D0890E33EC53
:1013700012F004040510D8A408D00B0E06180710AC
:10138000D8A403D08A0E33EC12F004040510D8A4BC
:1013900008D00C0E06180710D8A403D08B0E33EC1F
:1013A00012F004040510D8A408D00D0E061807107A
:1013B000D8A403D08C0E33EC12F004040510D8A48A
:1013C00008D00E0E06180710D8A403D08D0E33ECEB
:1013D00012F004040510D8A408D00F0E0618071048
:1013E000D8A403D08E0E33EC12F004040510D8A458
:1013F00008D0100E06180710D8A403D08F0E33ECB7
:1014000012F0020E04180510D8A407D00604071025
:10141000D8A403D0C00E33EC12F0020E041805104D
:10142000D8A408D0020E06180710D8A403D0C10E05
:1014300033EC12F0020E04180510D8A408D0030EE5
:1014400006180710D8A403D0C20E33EC12F0020E17
:1014500004180510D8A408D0040E06180710D8A444
:1014600003D0C30E33EC12F0020E04180510D8A4FA
:1014700008D0050E06180710D8A403D0C40E33EC0C
:1014800012F0020E04180510D8A408D0060E061893
:101490000710D8A403D0C50E33EC12F0020E0418C6
:1014A0000510D8A408D0070E06180710D8A403D03A
:1014B000C60E33EC12F0020E04180510D8A408D0A2
:1014C000080E06180710D8A403D0C70E33EC12F08C
:1014D000020E04180510D8A408D0090E061807102B
:1014E000D8A403D0C80E33EC12F0020E0418051075
:1014F000D8A408D00A0E06180710D8A403D0C90E25
:1015000033EC12F0020E04180510D8A408D00B0E0C
:1015100006180710D8A403D0CA0E33EC12F0020E3E
:1015200004180510D8A408D00C0E06180710D8A46B
:1015300003D0CB0E33EC12F0020E04180510D8A421
:1015400008D00D0E06180710D8A403D0CC0E33EC2B
:1015500012F0020E04180510D8A408D00E0E0618BA
:101560000710D8A403D0CD0E33EC12F0020E0418ED
:101570000510D8A408D00F0E06180710D8A403D061
:10158000CE0E33EC12F0020E04180510D8A412008F
:10159000100E06180710D8A41200CF0E33EC12F06C
:1015A00012002D6E6D0E2D649FD0000E126E030E74
:1015B000116E000E0A6E0A0E096E000E046E640EA5
:1015C000036E2DC001F0026A0DEC11F001C007F0AE
:1015D00002C008F08AEC10F0090E07240F6E000E0E
:1015E0000820106E0DEC12F0500E0F24F66E080E4F
:1015F0001020F76E0900F5CF18F00900F5CF19F0AB
:101600000A00F5CF1AF0000E0A6E640E096E2DC0A6
:1016100007F0086A8AEC10F0120E07240F6E000E15
:101620000820106E000E126E030E116E0DEC12F0FB
:10163000500E0F24F66E080E1020F76E0900F5CF3D
:1016400015F00900F5CF16F00A00F5CF17F084EC7D
:101650000EF015C02AF016C02BF017C02CF0000EAB
:10166000126E030E116E000E046E0A0E036E2DC074
:1016700001F0026A0DEC11F001C00FF002C010F091
:101680000DEC12F0500E0F24F66E080E1020F76EBF
:101690000900F5CF18F00900F5CF19F00A00F5CFD1
:1016A0001AF02AC015F02BC016F02CC017F084ECED
:1016B0000EF015C027F016C028F017C029F027C07B
:1016C00015F028C016F029C017F0000E186E000E95
:1016D000196E3F0E1A6E84EC0EF015C024F016C081
:1016E00025F017C026F012000A0E2D6463D0000EFC
:1016F000126E030E116E000E046E0A0E036E2DC0E4
:1017000001F0026A0DEC11F001C00FF002C010F000
:101710000DEC12F0500E0F24F66E080E1020F76E2E
:101720000900F5CF18F00900F5CF19F00A00F5CF40
:101730001AF0000E0A6E0A0E096E2DC007F0086A34
:101740008AEC10F0090E07240F6E000E0820106EB0
:10175000000E126E030E116E0DEC12F0500E0F24DF
:10176000F66E080E1020F76E0900F5CF15F009008F
:10177000F5CF16F00A00F5CF17F084EC0EF015C087
:101780002AF016C02BF017C02CF02AC015F02BC081
:1017900016F02CC017F0000E186E000E196E3F0EDA
:1017A0001A6E84EC0EF015C024F016C025F017C098
:1017B00026F012002D50030D500EF324F66E080E85
:1017C000F420F76E0900F5CF15F00900F5CF16F0FB
:1017D0000A00F5CF17F0000E186E000E196E3F0EBE
:1017E0001A6E84EC0EF015C024F016C025F017C058
:1017F00026F0120030C034F0356A366A2F343436A1
:1018000001E335803450396E33C034F0356A366ABE
:101810003234343601E335803450386E3950D8B420
:101820000BD03850395CD8B00ED03950000838246D
:10183000346E180E346407D031C02EF032C02FF051
:1018400033C030F012003850D8B40BD03950385C67
:10185000D8B00ED0385000083924346E180E3464D5
:1018600007D02EC02EF02FC02FF030C030F0120065
:10187000060E376E30BE378E33BE378C2F8EFF0E7E
:101880002E16FF0E2F16000E3016328EFF0E31165A
:10189000FF0E3216000E33163850395CD8B01BD00C
:1018A000D890313632363336380639503818D8B4F5
:1018B0000DD0370637C034F0070E3416D8B406D032
:1018C000EFD7D89030322F322E32392A385039188B
:1018D000D8B41FD0F6D73950385CD8B01AD0D890C9
:1018E0002E362F363036390639503818D8B40DD048
:1018F000370637C034F0070E3416D8B406D0EFD709
:10190000D890333232323132382A38503918D8A48C
:10191000F7D737AE0CD0FF0E2E1AFF0E2F1AFF0E80
:10192000301A010E2E26000E2F22000E302237AC68
:101930000CD0FF0E311AFF0E321AFF0E331A010EB1
:101940003126000E3222000E3322000E376E2E504A
:1019500031262F5032223050332233AE0ED0FF0EBC
:10196000311AFF0E321AFF0E331A010E3126000E05
:101970003222000E3322010E376E31C001F032C028
:1019800002F033C003F039C004F037C005F0EBECCF
:101990000FF001C02EF002C02FF003C030F0120093
:1019A00003C007F0086A096A0234073601E30880B9
:1019B00007500F6E0F50D8A409D0000E016E000E14
:1019C000026E000E036E000E046E120006C007F0D9
:1019D000086A096A0534073601E3088007500E6E6D
:1019E0000E50D8A409D0000E016E000E026E000E3B
:1019F000036E000E046E1200028EFF0E0116FF0E23
:101A00000216000E0316058EFF0E0416FF0E0516B5
:101A1000000E0616000E0A6E000E0B6E000E0C6E07
:101A2000000E0D6E7F0E0F5E0E50980F0F5E180E9B
:101A30000E6ED8900A360B360C360D360450015C0B
:101A40000550025806500358D8A007D00450015E34
:101A50000550025A0650035A0A80D89001360236C1
:101A600003360E2EE6D70FAE16D00F50800A970F12
:101A7000D8B009D0000E016E000E026E000E036E8B
:101A8000000E046E1200D8900D320C320B320A3266
:101A90000F3EF9D715D0170E0F640FD0000E016E50
:101AA000000E026E000E036E000E046E1200D8903F
:101AB0000A360B360C360D360F060F50D8A4F7D762
:101AC0000AC001F00BC002F00CC003F00DC004F01E
:101AD0001200033404340C6E0C50D8A409D0000E4C
:101AE000016E000E026E000E036E000E046E1200F8
:101AF000063407340B6E0B50D8A409D0000E016ECB
:101B0000000E026E000E036E000E046E1200038EB5
:101B1000FF0E0116FF0E0216FF0E0316000E04162E
:101B2000068EFF0E0416FF0E0516FF0E0616000E9B
:101B30000716000E076E000E086E000E096E000EEE
:101B40000A6E7F0E0C5E0B50A00F0C5E200E0B6E0B
:101B5000D8900736083609360A360450015C05501D
:101B600002580650035807500458D8A009D0045012
:101B7000015E0550025A0650035A0750045A078066
:101B8000D89001360236033604360B2EE1D70CAE60
:101B900016D00C50800A9F0FD8B009D0000E016EED
:101BA000000E026E000E036E000E046E1200D8903E
:101BB0000A320932083207320C3EF9D715D01F0E0F
:101BC0000C640FD0000E016E000E026E000E036E4C
:101BD000000E046E1200D8900736083609360A3611
:101BE0000C060C50D8A4F7D707C001F008C002F0CB
:101BF00009C003F00AC004F0120076EC12F020ECE9
:101C000012F081EC12F0770E406E080E416E46EC39
:101C100004F046EC12F001C05AF002C05BF05AC06A
:101C200009F05BC00AF0C6EC11F009C015F00AC05B
:101C300016F00BC017F0000E186EA00E196E3B0EBA
:101C40001A6E84EC0EF015C054F016C055F017C093
:101C500056F054C009F055C00AF056C00BF0000E03
:101C60000C6E7A0E0D6E440E0E6E78EC0FF009C0FD
:101C70004BF00AC04CF00BC04DF054C001F055C001
:101C800002F056C003F059EC12F001C02EF002C071
:101C90002FF003C030F0000E316EA00E326E400EF9
:101CA000336EFAEC0BF02EC051F02FC052F030C062
:101CB00053F051C009F052C00AF053C00BF04BC0B2
:101CC0000CF04CC00DF04DC00EF078EC0FF009C0D8
:101CD00057F00AC058F00BC059F0000E056E020E06
:101CE000046E000E076E010E066E42EC09F0830EC4
:101CF000406E080E416E57C042F058C043F059C0C4
:101D000044F046EC04F085D717C01BF01C6A1D6A2E
:101D100016341B3601E31C801B501E6E1E50D8A4C7
:101D200007D0000E156E000E166E000E176E120014
:101D30001AC01BF01C6A1D6A19341B3601E31C8093
:101D40001B50236E2350D8A407D0000E156E000E32
:101D5000166E000E176E120023507B0F1E2617C042
:101D600023F01A50231A800E2316168E198EFF0E9A
:101D70001816FF0E1916000E1A16000E1F6E000E12
:101D8000206E000E216E070E226E15A006D0185090
:101D90001F26195020221A502122D89017321632AD
:101DA0001532D890183619361A36222EEED7090E6B
:101DB000226E15A006D018501F26195020221A5046
:101DC0002122D890173216321532D8902132203283
:101DD0001F32222EEED71FC001F020C002F021C01A
:101DE00003F01EC004F023C005F0EBEC0FF001C0BF
:101DF00015F002C016F003C017F012002DC02FF02E
:101E0000306A316A2C342F3601E330802F50396E1E
:101E10003950D8A409D0000E2B6E000E2C6E000E87
:101E20002D6E000E2E6E1200170E2F6E2BC030F08E
:101E30002CC031F02DC032F02F28336E04D0D89052
:101E4000323231323032332EFAD73050346E2C8E5B
:101E5000FF0E2B16FF0E2C16000E2D162B50356E76
:101E60002C50366E2D50376E386A8E0E395E39AE74
:101E700016D03950800A8F0FD8B009D0000E2B6EC3
:101E8000000E2C6E000E2D6E000E2E6E1200D890DD
:101E90003832373236323532393EF9D715D0170E4F
:101EA00039640FD0000E2B6E000E2C6E000E2D6EBE
:101EB000000E2E6E1200D89035363636373638364C
:101EC00039063950D8A4F7D73450D8B408D0381EC2
:101ED000371E361E356C000E36223722382235C0AA
:101EE0002BF036C02CF037C02DF038C02EF0120089
:101EF0000BC00FF0106A116A0A340F3601E310802C
:101F00000F50166E1650D8A407D0000E096E000EA2
:101F10000A6E000E0B6E12000EC00FF0106A116AEE
:101F20000D340F3601E310800F50176E1750D8A4F0
:101F300007D0000E096E000E0A6E000E0B6E120026
:101F4000000E136E000E146E000E156E1750890FE2
:101F5000165E0BC017F00E50171A800E17160A8E59
:101F6000FF0E0916FF0E0A16000E0B160D8EFF0E41
:101F70000C16FF0E0D16000E0E16180E126ED890CF
:101F80001336143615360C50095C0D500A580E5095
:101F90000B58D8A007D00C50095E0D500A5A0E50AD
:101FA0000B5A1380D89009360A360B36122EE7D713
:101FB00013C001F014C002F015C003F016C004F005
:101FC00017C005F0EBEC0FF001C009F002C00AF0F9
:101FD00003C00BF012000450D8B405D00150021019
:101FE0000310D8A40CD0000E016E000E026E000E7D
:101FF000036E1200042AD890033202320132000E1E
:102000000114066E000E0214076EFE0E0314086E15
:10201000065007100810D8B40CD0ECD7042A010ED3
:102020000126000E0222000E0322D8900332023253
:102030000132000E0114066E000E0214076EFF0E30
:102040000314086E065007100810D8B406D0E6D75F
:102050000406D89001360236033602BE03D0020EC3
:102060000460F6D704A0029ED890043204500312F4
:102070000550D8A4038E01C001F002C002F003C0D5
:1020800003F0120003AE16D001C007F002C008F042
:1020900003C009F0071E081E091E072A000E0822A9
:1020A0000922000E0724016E000E0820026E800E29
:1020B0000920036E06AE16D004C007F005C008F074
:1020C00006C009F0071E081E091E072A000E082276
:1020D0000922000E0724046E000E0820056E800EF3
:1020E0000920066E000E011A000E021A800E031A55
:1020F000000E041A000E051A800E061A0450015C28
:102100000550025806500358D8B002D0D89012009B
:10211000D8801200000E0C6E0AAE06D0096C0A1EA2
:10212000D8B00A2A010E0C6E08AE06D0076C081E45
:10213000D8B0082A010E0C1A000E0E6E000E0D6E9D
:1021400009500A10D8B41CD0010E0B6E04D0D890E0
:1021500009360A360B2A0AAEFAD7D8900D360E3653
:102160000950075C0A500858D8A005D00950075EEE
:102170000A50085A0D80D8900A3209320B2EEDD73A
:102180000C50D8B404D00D6C0E1ED8B00E2A0DC061
:1021900007F00EC008F01200000E096E000E0A6E65
:1021A000000E0B6E000E0C6E055006100710081086
:1021B000D8B42AD0010E0D6E06D0D890053606365A
:1021C000073608360D2A08AEF8D7D89009360A36F1
:1021D0000B360C360550015C065002580750035868
:1021E00008500458D8A009D00550015E0650025A84
:1021F0000750035A0850045A0980D8900832073211
:10220000063205320D2EE1D709C001F00AC002F0F6
:102210000BC003F00CC004F01200000E066E02AEFC
:1022200006D0016C021ED8B0022A010E066E04AE62
:1022300004D0036C041ED8B0042A03500410D8B490
:1022400018D0010E056E04D0D89003360436052A46
:1022500004AEFAD70350015C04500258D8A004D051
:102260000350015E0450025AD89004320332052E06
:10227000F1D70650D8B404D0016C021ED8B0022A9F
:1022800001C001F002C002F0120005500610071054
:102290000810D8B424D0010E096E06D0D8900536A7
:1022A000063607360836092A08AEF8D70550015C0D
:1022B000065002580750035808500458D8A008D0B8
:1022C0000550015E0650025A0750035A0850045A3E
:1022D000D8900832073206320532092EE7D701C0FE
:1022E00001F002C002F003C003F004C004F01200C9
:1022F0008E0E116E06D0D8900C320B320A32093293
:10230000112A000E09140D6E000E0A140E6E000E36
:102310000B140F6EFF0E0C14106E0D500E100F10DC
:102320001010D8A4E8D709C001F00AC002F00BC011
:1023300003F011C004F0000E056EEBEC0FF001C0CD
:1023400009F002C00AF003C00BF012003D503E102D
:102350003F10D8B406D0000E3D1A000E3E1A800E73
:102360003F1A3AC02EF03BC02FF03CC030F03DC0C9
:1023700031F03EC032F03FC033F0FAEC0BF02EC02B
:102380003AF02FC03BF030C03CF01200000E0C6E53
:102390000AAE06D0096C0A1ED8B00A2A010E0C6ECD
:1023A00009C001F00AC002F0036A8E0E046E0CC070
:1023B00005F0EBEC0FF001C009F002C00AF003C019
:1023C0000BF012000FD0D59AD596D580D592D59422
:1023D000F294D58C000ED66ED58EF2A4FED70106EF
:1023E000D8A0020602BE12000250EDE10104D8A0FE
:1023F0001200E9D7036E03C083FF82808282000E41
:10240000026E010E016EE2EC11F08292000E026E7D
:10241000010E016EE2EC11F012000F501102F3CF29
:1024200013F0F4CF14F00F501202F3501426105092
:102430001102F350142613C00FF014C010F0120054
:10244000380E33EC12F00C0E33EC12F0060E33ECB7
:1024500012F0010E33EC12F0000E026E050E016E4A
:10246000E2EC11F01200036E03C083FF82908282BF
:10247000000E026E010E016EE2EC11F08292000E6F
:10248000026E010E016EE2EC11F01200C282C2B2C5
:10249000FED7C350C4CF03F0046A03C004F0036A3C
:1024A0000310056E0450066E05C001F006C002F070
:1024B0001200015002100310D8B406D0000E011A09
:1024C000000E021A800E031A01C001F002C002F0D1
:1024D00003C003F0120000EE4BF0110EEE6AE806A6
:1024E000FDE1000EF86E0001FDEF0DF0010E926EA1
:1024F000700E946E000E956E000E826E000E836E4E
:102500001200010EC26E0E0EC16E960EC06E12004B
:0A251000046E0450FAEC11F0120002
:020000040020DA
:08000000FFFFFFFFFFFFFFFF00
:020000040030CA
:0E00000000001F1EFF8385FF0FC00FE00F40A2
:00000001FF
