:04000000E6EF3DF0FA
:107BCC00146A136A000EF86E0001FAEF3DF014BE51
:107BDC0006D00F0E135C270E1458D8B0120082A0DA
:107BEC001200134A142A1200000E146E000E136EAB
:107BFC00000E956E010E946EBAEC3EF082B0EDEC78
:107C0C003DF00AEC3EF0F8D7880E016E130E026EB2
:107C1C00000E036E000E046E08D0FF0E0126FF0E40
:107C2C000222FF0E0322FF0E042204BE1200045097
:107C3C0003100210F2E10104D8A01200EED7880E56
:107C4C00016E130E026E000E036E000E046E08D051
:107C5C00FF0E0126FF0E0222FF0E0322FF0E04224E
:107C6C0004BE1200045003100210F2E10104D8A06B
:107C7C001200EED7000E066E02AE06D0016C021E8C
:107C8C00D8B0022A010E066E04AE04D0036C041E9A
:107C9C00D8B0042A03500410D8B418D0010E056EC5
:107CAC0004D0D89003360436052A04AEFAD7035014
:107CBC00015C04500258D8A004D00350015E04505B
:107CCC00025AD89004320332052EF1D70650D8B49C
:107CDC0004D0016C021ED8B0022A01C001F002C00F
:107CEC0002F01200000E066E04AE06D0036C041EE9
:107CFC00D8B0042A010E066E02AE06D0016C021E2C
:107D0C00D8B0022A010E061A000E086E000E076E7D
:107D1C0003500410D8B41CD0010E056E04D0D890BA
:107D2C0003360436052A04AEFAD7D890073608363F
:107D3C000350015C04500258D8A005D00350015EDA
:107D4C000450025A0780D89004320332052EEDD726
:107D5C000650D8B404D0076C081ED8B0082A07C047
:107D6C0001F008C002F0120013C001F014C002F0C0
:107D7C00030E046EE80E036E78EC3EF001C00BF0BF
:107D8C0002C00CF013C001F014C002F0000E046E1F
:107D9C00640E036E78EC3EF001C00DF002C00EF0E4
:107DAC0013C001F014C002F0000E046E0A0E036E34
:107DBC0078EC3EF001C011F002C012F013C001F0DB
:107DCC0014C002F0000E046E0A0E036E40EC3EF07E
:107DDC0001C00FF002C010F015D03F0E11D0060EEE
:107DEC000FD05B0E0DD04F0E0BD0660E09D06D0E62
:107DFC0007D07D0E05D0070E03D07F0E01D06F0E7D
:107E0C00836E27D00BC009F00CC00AF00A50000A90
:107E1C00D8A41FD00950000AD8B4DFD7010AD8B4AF
:107E2C00DED7030AD8B4DDD7010AD8B4DCD7070AE9
:107E3C00D8B4DBD7010AD8B4DAD7030AD8B4D9D767
:107E4C00010AD8B4D8D70F0AD8B4D7D7010AD8B4F6
:107E5C00D6D7828282948298829A829C25EC3EF0BC
:107E6C0015D03F0E11D0060E0FD05B0E0DD04F0E5D
:107E7C000BD0660E09D06D0E07D07D0E05D0070E07
:107E8C0003D07F0E01D06F0E836E27D00DC009F08A
:107E9C000EC00AF00A50000AD8A41FD00950000ADC
:107EAC00D8B4DFD7010AD8B4DED7030AD8B4DDD7EB
:107EBC00010AD8B4DCD7070AD8B4DBD7010AD8B486
:107ECC00DAD7030AD8B4D9D7010AD8B4D8D70F0A4D
:107EDC00D8B4D7D7010AD8B4D6D7829282848298E4
:107EEC00829A25EC3EF015D03F0E11D0060E0FD025
:107EFC005B0E0DD04F0E0BD0660E09D06D0E07D059
:107F0C007D0E05D0070E03D07F0E01D06F0E836E51
:107F1C0027D011C009F012C00AF00A50000AD8A4E8
:107F2C001FD00950000AD8B4DFD7010AD8B4DED765
:107F3C00030AD8B4DDD7010AD8B4DCD7070AD8B401
:107F4C00DBD7010AD8B4DAD7030AD8B4D9D7010AD7
:107F5C00D8B4D8D70F0AD8B4D7D7010AD8B4D6D743
:107F6C00829282948288829A25EC3EF015D03F0E44
:107F7C0011D0060E0FD05B0E0DD04F0E0BD0660E2F
:107F8C0009D06D0E07D07D0E05D0070E03D07F0EE5
:107F9C0001D06F0E836E27D00FC009F010C00AF00D
:107FAC000A50000AD8A41FD00950000AD8B4DFD751
:107FBC00010AD8B4DED7030AD8B4DDD7010AD8B485
:107FCC00DCD7070AD8B4DBD7010AD8B4DAD7030A4E
:107FDC00D8B4D9D7010AD8B4D8D70F0AD8B4D7D7C0
:107FEC00010AD8B4D6D7829282948298828A25ECE0
:047FFC003EF0120041
:020000040020DA
:08000000FFFFFFFFFFFFFFFF00
:020000040030CA
:0E00000000051F1FFF8385FF0FC00FE00F409C
:00000001FF
