:0400000092EF3FF04C
:107F24000001B2EF3FF0D59CD59AD586000E056EC0
:107F3400000E046E0AD0FC0ED76E180ED66EF294A4
:107F4400D58EF2A4FED7044A052A0150045C0550DC
:107F5400800A036E0250800A0358D8B01200EBD78F
:107F6400000E956E000E096E010E086E000E0B6E6B
:107F7400010E0A6E000E836E000E0D6E0A0E0C6E5C
:107F840082A211D00DBE06D00D500DE10F0E0C5C77
:107F9400D8B009D0010E0C240C6E000E0D200D6E0D
:107FA40082A212D0FDD782B00DBE0ED00D5004E1D6
:107FB400020E0C5CD8A008D0FF0E0C240C6EFF0E31
:107FC4000D200D6E82B0FED783680CC001F00DC089
:107FD40002F095EC3FF0000E836E0CC006F00DC06D
:107FE40007F0061E071E064A072A0F0E0624016E16
:0C7FF400000E0720026E95EC3FF0C2D793
:020000040020DA
:08000000FFFFFFFFFFFFFFFF00
:020000040030CA
:0E00000000001F1EFF8385FF0FC00FE00F40A2
:00000001FF
