:04000000A2EF13F068
:1008000000010000000A00000064000000E803008E
:100810000010270000A086010040420F008096983B
:100820000000E1F50500CA9A3B00803F002041002E
:10083000C842007A44401C4650C347247449971864
:100840004BBCBE4C6B6E4E03155079AD60F34971D5
:1008500000803FCDCC3DD7233C12833AB7D138C678
:100860002737388635C0D633CC2B32708930E7DB5A
:100870002EE53C1E42A20D566F6C74203D200025D3
:10088000332E30660000420E0001636F000E646F6D
:1008900059EF08F0250E7819D8B405D07851A7EC97
:1008A00013F059EF08F0000E00016C6F000E6B6F33
:1008B000000E6A6F000E696F40C0F6FF41C0F7FF7F
:1008C0000800F55083EC13F0D8A034D0000E0001DE
:1008D0006C6F000E6B6F6BC00FF06CC010F0000EF1
:1008E000126E0A0E116E25EC13F00FC06BF010C0E3
:1008F0006CF0D00E456EFF0E466E40C0F6FF41C054
:10090000F7FF0800F550476E486A455047264650A5
:100910004822475000016B2748506C23404A412A27
:1009200040C0F6FF41C0F7FF0800F55083EC13F01C
:10093000D8B0D1D740C0F6FF41C0F7FF0800F5504E
:100940002E0AD8A430D000016A8D404A412A000EF8
:10095000776F000E766F1CD076C00FF077C010F066
:10096000000E126E0A0E116E25EC13F040C0F6FF59
:1009700041C0F7FF0800F5500F26000E1022D00EE0
:100980000F240001766FFF0E1020776F404A412A36
:1009900040C0F6FF41C0F7FF0800F55083EC13F0AC
:1009A000D8A00AD0D9D7000E0001776F000E766F5D
:1009B0006A8902D06A8512D040C0F6FF41C0F7FFB5
:1009C000404A412A0800F5CF78F000017851000A2A
:1009D000D8B41200660AD8B4EDD76BD3070E6A15E7
:1009E000D8B4E5D26AA904D0000E776F060E766FF0
:1009F00063C0D9FF64C0DAFFDECF73F0DECF74F0DE
:100A0000DDCF75F0030E6327000E642375AF11D0A0
:100A100073C001F074C002F075C003F071EC13F004
:100A200001C073F002C074F003C075F0030E000142
:100A30006913000E726F000E716F7351741175118E
:100A4000D8B486D0820E456EFF0E466E73C047F056
:100A500074C048F075C049F076C04AF0100E05D059
:100A6000D8904A32493248324732E82EF9D74750B7
:100A70004524716F000E4620726F7107D8A072076F
:100A800071C00FF072C010F0000E126E030E116EE6
:100A900025EC13F00FC071F010C072F071C007F0B8
:100AA00072C008F0000E0A6E0A0E096EA2EC11F078
:100AB00007C071F008C072F0000172AF03D0710777
:100AC000D8A072077151000868EC08F024C06DF0DE
:100AD00025C06EF026C06FF06DC015F06EC016F028
:100AE0006FC017F073C018F074C019F075C01AF019
:100AF00027EC0FF015C06DF016C06EF017C06FF048
:100B00006DC001F06EC002F06FC003F0000E046E05
:100B1000800E056E3F0E066E5AEC11F0D8B005D06F
:100B200000017107D8A0720713D06DC001F06EC02C
:100B300002F06FC003F0000E046E200E056E410E31
:100B4000066E5AEC11F0D8A003D00001714B722B45
:100B5000000177BF06D077511BE10D0E765DD8B04E
:100B600017D073C02EF074C02FF075C030F07651DE
:100B7000FBEC0BF024C031F025C032F026C033F07E
:100B800024EC0DF02EC073F02FC074F030C075F05F
:100B9000000172BF06D0725120E10A0E715DD8B01B
:100BA0001CD0735174117511D8B456D073C02BF08A
:100BB00074C02CF075C02DF0A1EC0FF02B502C1050
:100BC0002D102E10D8A448D0000172BF45D072510C
:100BD00004E1020E715DD8A03FD06DC001F06EC07F
:100BE00002F06FC003F0700E046E890E056E400EA9
:100BF000066E5AEC11F0D8B003D00001F70E02D007
:100C00000001F80E7127FF0E7223715168EC08F095
:100C100024C06DF025C06EF026C06FF073C001F0E7
:100C200074C002F075C003F06DC004F06EC005F032
:100C30006FC006F0FAEC0DF001C065F002C066F07E
:100C400003C067F004C068F0000E0001736F000E6F
:100C5000746F000E756F33D073C02BF074C02CF01E
:100C600075C02DF0A1EC0FF02BC065F02CC066F024
:100C70002DC067F02EC068F073C03AF074C03BF02E
:100C800075C03CF065C009F066C00AF067C00BF0A3
:100C900068C00CF090EC12F009C03DF00AC03EF0C4
:100CA0000BC03FF0BEEC12F03AC073F03BC074F0E2
:100CB0003CC075F0000E0001726F000E716F010EE6
:100CC000786F0A0E7819D8B418D07851040D010E37
:100CD000F324F66E080EF420F76E0900F550655DFA
:100CE0000900F55066590900F55067590900F5509B
:100CF0006859D8A002D0782BE4D778C045F0466A6E
:100D000045BE460676514526775146227151452605
:100D10007251462245506B5F46506C5B765177119D
:100D2000D8B403D06B07D8A06C07030E6915456EC5
:100D3000000E6A15466E45504610D8B408D004D04F
:100D4000200EA7EC13F000016B07D8A06C076CBF56
:100D500005D06C51F5E16B05D8B0F2D7030E6915DB
:100D6000456E000E6A15466E45504610D8B44AD0FE
:100D70002D0EA7EC13F046D065C001F066C002F05E
:100D800067C003F068C004F000017851040D010E43
:100D9000F324F66E080EF420F76E0900F5CF05F087
:100DA0000900F5CF06F00900F5CF07F00A00F5CFEE
:100DB00008F0E4EC11F001C06DF002C06EF003C069
:100DC0006FF004C070F06DC001F06EC002F06FC033
:100DD00003F070C004F00A0E056E000E066E000EE1
:100DE000076E000E086E5DEC12F001C06DF002C0DF
:100DF0006EF003C06FF004C070F000016D51300F51
:100E0000A7EC13F0000178077829D8B408D0B4D73C
:100E1000300EA7EC13F000017107D8A0720772BF63
:100E200005D07251F5E17105D8B0F2D777BF09D07E
:100E3000775104E1090E765DD8A003D0080E786FD3
:100E400002D076C078F07851765F000E78BFFF0E42
:100E5000775B7851D8B403D02E0EA7EC13F00001C5
:100E6000785168EC08F024C060F025C061F026C01D
:100E700062F073C018F074C019F075C01AF060C049
:100E800015F061C016F062C017F027EC0FF015C026
:100E90002BF016C02CF017C02DF0A1EC0FF02BC0DA
:100EA00065F02CC066F02DC067F02EC068F06DD0E4
:100EB00065C001F066C002F067C003F068C004F0CE
:100EC00000017851040D010EF324F66E080EF42093
:100ED000F76E0900F5CF05F00900F5CF06F009001F
:100EE000F5CF07F00A00F5CF08F0E4EC11F001C0EF
:100EF0006DF002C06EF003C06FF004C070F06DC002
:100F000001F06EC002F06FC003F070C004F00A0E72
:100F1000056E000E066E000E076E000E086E5DEC8C
:100F200012F001C06DF002C06EF003C06FF004C09B
:100F300070F000016D51300FA7EC13F065C001F0A7
:100F400066C002F067C003F068C004F00001785189
:100F5000040D010EF324F66E080EF420F76E09005E
:100F6000F5CF05F00900F5CF06F00900F5CF07F041
:100F70000A00F5CF08F05DEC12F001C065F002C088
:100F800066F003C067F004C068F0000178077829B4
:100F9000D8B408D08DD7300EA7EC13F00001760737
:100FA000D8A0770776517711D8B483D0F4D776518B
:100FB0007711D8A408D06551661167116811D8A4BB
:100FC00002D0764B772B800E78BF7F0E456E765120
:100FD000785D7751800A4558D8B003D076C078F054
:100FE00010D07751800A456E7851765D800E78BFBB
:100FF0007F0E4558D8B005D07851766F776B76BFA5
:1010000077076B516C11D8B40DD0030E6915456E7E
:10101000000E6A15466E45504610D8B403D06B07D3
:10102000D8A06C076AAD13D06B51765D7751800AFA
:10103000456E6C51800A4558D8B005D076516B5F2B
:1010400077516C5B04D0000E6C6F000E6B6F800EDE
:1010500078BF7F0E456E6B51785D6C51800A4558A4
:10106000D8B007D078516B5F000E78BFFF0E6C5B75
:1010700004D0000E6C6F000E6B6F6B516C11D8B406
:101080000BD0200EA7EC13F000016B07D8A06C0763
:101090006B516C11D8A4F5D7030E6915456E000E7F
:1010A0006A15466E45504610D8B403D02D0EA7ECF5
:1010B00013F040C0F6FF41C0F7FF404A412A080044
:1010C000F5CF78F000017851D8B412004AEF04F05F
:1010D0002A6E2AAE01D12A6C2A50800A120FD8A09B
:1010E00091D0000E126E030E116E000E0A6E0A0EE3
:1010F000096E000E046E640E036E2A50016E026AC1
:1011000001BE020625EC12F001C007F002C008F093
:10111000A2EC11F0090E07240F6E000E0820106ECD
:1011200025EC13F0500E0F24F66E080E1020F76E0B
:101130000900F5CF18F00900F5CF19F00A00F5CF36
:101140001AF0000E0A6E640E096E2A50076E086AC5
:1011500007BE0806A2EC11F0120E07240F6E000E57
:101160000820106E000E126E030E116E25EC13F0A7
:10117000500E0F24F66E080E1020F76E0900F5CF02
:1011800015F00900F5CF16F00A00F5CF17F027EC9F
:101190000FF015C027F016C028F017C029F027C09F
:1011A00015F028C016F029C017F0000E126E030EBD
:1011B000116E000E046E0A0E036E2A50016E026A52
:1011C00001BE020625EC12F001C00FF002C010F0C3
:1011D00025EC13F0500E0F24F66E080E1020F76E5B
:1011E0000900F5CF18F00900F5CF19F00A00F5CF86
:1011F0001AF027EC0FF015C024F016C025F017C028
:1012000026F012002A50800A750FD8A053D0000E85
:101210000A6E0A0E096E2A50076E086A07BE080693
:10122000A2EC11F0090E07240F6E000E0820106EBC
:10123000000E126E030E116E25EC13F0500E0F24EB
:10124000F66E080E1020F76E0900F5CF15F00900B4
:10125000F5CF16F00A00F5CF17F0000E126E030E50
:10126000116E000E046E0A0E036E2A50016E026AA1
:1012700001BE020625EC12F001C00FF002C010F012
:1012800025EC13F0500E0F24F66E080E1020F76EAA
:101290000900F5CF18F00900F5CF19F00A00F5CFD5
:1012A0001AF027EC0FF015C024F016C025F017C077
:1012B00026F012002A50030D500EF324F66E080E8D
:1012C000F420F76E0900F5CF24F00900F5CF25F0E2
:1012D0000A00F5CF26F012002A50800A120FD8A07B
:1012E00091D0000E126E030E116E000E0A6E0A0EE1
:1012F000096E000E046E640E036E2A50016E026ABF
:1013000001BE020625EC12F001C007F002C008F091
:10131000A2EC11F0090E07240F6E000E0820106ECB
:1013200025EC13F0290E0F24F66E080E1020F76E30
:101330000900F5CF18F00900F5CF19F00A00F5CF34
:101340001AF0000E0A6E640E096E2A50076E086AC3
:1013500007BE0806A2EC11F0120E07240F6E000E55
:101360000820106E000E126E030E116E25EC13F0A5
:10137000290E0F24F66E080E1020F76E0900F5CF27
:1013800015F00900F5CF16F00A00F5CF17F027EC9D
:101390000FF015C027F016C028F017C029F027C09D
:1013A00015F028C016F029C017F0000E126E030EBB
:1013B000116E000E046E0A0E036E2A50016E026A50
:1013C00001BE020625EC12F001C00FF002C010F0C1
:1013D00025EC13F0290E0F24F66E080E1020F76E80
:1013E0000900F5CF18F00900F5CF19F00A00F5CF84
:1013F0001AF027EC0FF015C024F016C025F017C026
:1014000026F012002A50800A750FD8A053D0000E83
:101410000A6E0A0E096E2A50076E086A07BE080691
:10142000A2EC11F0090E07240F6E000E0820106EBA
:10143000000E126E030E116E25EC13F0290E0F2410
:10144000F66E080E1020F76E0900F5CF15F00900B2
:10145000F5CF16F00A00F5CF17F0000E126E030E4E
:10146000116E000E046E0A0E036E2A50016E026A9F
:1014700001BE020625EC12F001C00FF002C010F010
:1014800025EC13F0290E0F24F66E080E1020F76ECF
:101490000900F5CF18F00900F5CF19F00A00F5CFD3
:1014A0001AF027EC0FF015C024F016C025F017C075
:1014B00026F012002A50030D290EF324F66E080EB2
:1014C000F420F76E0900F5CF24F00900F5CF25F0E0
:1014D0000A00F5CF26F0120004040510D8A407D0A6
:1014E00006040710D8A403D0800E4BEC13F00404BC
:1014F0000510D8A408D0020E06180710D8A403D0EF
:10150000810E4BEC13F004040510D8A408D0030E90
:1015100006180710D8A403D0820E4BEC13F0040475
:101520000510D8A408D0040E06180710D8A403D0BC
:10153000830E4BEC13F004040510D8A408D0050E5C
:1015400006180710D8A403D0840E4BEC13F0040443
:101550000510D8A408D0060E06180710D8A403D08A
:10156000850E4BEC13F004040510D8A408D0070E28
:1015700006180710D8A403D0860E4BEC13F0040411
:101580000510D8A408D0080E06180710D8A403D058
:10159000870E4BEC13F004040510D8A408D0090EF4
:1015A00006180710D8A403D0880E4BEC13F00404DF
:1015B0000510D8A408D00A0E06180710D8A403D026
:1015C000890E4BEC13F004040510D8A408D00B0EC0
:1015D00006180710D8A403D08A0E4BEC13F00404AD
:1015E0000510D8A408D00C0E06180710D8A403D0F4
:1015F0008B0E4BEC13F004040510D8A408D00D0E8C
:1016000006180710D8A403D08C0E4BEC13F004047A
:101610000510D8A408D00E0E06180710D8A403D0C1
:101620008D0E4BEC13F004040510D8A408D00F0E57
:1016300006180710D8A403D08E0E4BEC13F0040448
:101640000510D8A408D0100E06180710D8A403D08F
:101650008F0E4BEC13F0020E04180510D8A407D01F
:1016600006040710D8A403D0C00E4BEC13F0020EF2
:1016700004180510D8A408D0020E06180710D8A424
:1016800003D0C10E4BEC13F0020E04180510D8A4C1
:1016900008D0030E06180710D8A403D0C20E4BECD6
:1016A00013F0020E04180510D8A408D0040E061872
:1016B0000710D8A403D0C30E4BEC13F0020E04188D
:1016C0000510D8A408D0050E06180710D8A403D01A
:1016D000C40E4BEC13F0020E04180510D8A408D069
:1016E000060E06180710D8A403D0C50E4BEC13F055
:1016F000020E04180510D8A408D0070E061807100B
:10170000D8A403D0C60E4BEC13F0020E041805103B
:10171000D8A408D0080E06180710D8A403D0C70E06
:101720004BEC13F0020E04180510D8A408D0090ED3
:1017300006180710D8A403D0C80E4BEC13F0020E05
:1017400004180510D8A408D00A0E06180710D8A44B
:1017500003D0C90E4BEC13F0020E04180510D8A4E8
:1017600008D00B0E06180710D8A403D0CA0E4BECF5
:1017700013F0020E04180510D8A408D00C0E061899
:101780000710D8A403D0CB0E4BEC13F0020E0418B4
:101790000510D8A408D00D0E06180710D8A403D041
:1017A000CC0E4BEC13F0020E04180510D8A408D090
:1017B0000E0E06180710D8A403D0CD0E4BEC13F074
:1017C000020E04180510D8A408D00F0E0618071032
:1017D000D8A403D0CE0E4BEC13F0020E0418051063
:1017E000D8A41200100E06180710D8A41200CF0EAD
:1017F0004BEC13F012002D6E6D0E2D649FD0000E79
:10180000126E030E116E000E0A6E0A0E096E000EA5
:10181000046E640E036E2DC001F0026A25EC12F016
:1018200001C007F002C008F0A2EC11F0090E072475
:101830000F6E000E0820106E25EC13F0500E0F24D2
:10184000F66E080E1020F76E0900F5CF18F00900AB
:10185000F5CF19F00A00F5CF1AF0000E0A6E640EEB
:10186000096E2DC007F0086AA2EC11F0120E0724D1
:101870000F6E000E0820106E000E126E030E116E19
:1018800025EC13F0500E0F24F66E080E1020F76EA4
:101890000900F5CF15F00900F5CF16F00A00F5CFD5
:1018A00017F027EC0FF015C02AF016C02BF017C068
:1018B0002CF0000E126E030E116E000E046E0A0E56
:1018C000036E2DC001F0026A25EC12F001C00FF08A
:1018D00002C010F025EC13F0500E0F24F66E080E27
:1018E0001020F76E0900F5CF18F00900F5CF19F0B8
:1018F0000A00F5CF1AF02AC015F02BC016F02CC044
:1019000017F027EC0FF015C027F016C028F017C00D
:1019100029F027C015F028C016F029C017F0000ED6
:10192000186E000E196E3F0E1A6E27EC0FF015C0E0
:1019300024F016C025F017C026F012000A0E2D6400
:1019400063D0000E126E030E116E000E046E0A0EAE
:10195000036E2DC001F0026A25EC12F001C00FF0F9
:1019600002C010F025EC13F0500E0F24F66E080E96
:101970001020F76E0900F5CF18F00900F5CF19F027
:101980000A00F5CF1AF0000E0A6E0A0E096E2DC07D
:1019900007F0086AA2EC11F0090E07240F6E000E82
:1019A0000820106E000E126E030E116E25EC13F05F
:1019B000500E0F24F66E080E1020F76E0900F5CFBA
:1019C00015F00900F5CF16F00A00F5CF17F027EC57
:1019D0000FF015C02AF016C02BF017C02CF02AC04B
:1019E00015F02BC016F02CC017F0000E186E000E6C
:1019F000196E3F0E1A6E27EC0FF015C024F016C0BA
:101A000025F017C026F012002D50030D500EF324C0
:101A1000F66E080EF420F76E0900F5CF15F00900F8
:101A2000F5CF16F00A00F5CF17F0000E186E000E75
:101A3000196E3F0E1A6E27EC0FF015C024F016C079
:101A400025F017C026F0120030C034F0356A366A2F
:101A50002F34343601E335803450396E33C034F0DE
:101A6000356A366A3234343601E335803450386EA4
:101A70003950D8B40BD03850395CD8B00ED039506A
:101A800000083824346E180E346407D031C02EF0AC
:101A900032C02FF033C030F012003850D8B40BD021
:101AA0003950385CD8B00ED0385000083924346E24
:101AB000180E346407D02EC02EF02FC02FF030C087
:101AC00030F01200060E376E30BE378E33BE378CC4
:101AD0002F8EFF0E2E16FF0E2F16000E3016328E92
:101AE000FF0E3116FF0E3216000E33163850395CD9
:101AF000D8B01BD0D890313632363336380639500C
:101B00003818D8B40DD0370637C034F0070E341665
:101B1000D8B406D0EFD7D89030322F322E32392AAF
:101B200038503918D8B41FD0F6D73950385CD8B0EF
:101B30001AD0D8902E362F3630363906395038180C
:101B4000D8B40DD0370637C034F0070E3416D8B4E9
:101B500006D0EFD7D890333232323132382A38506B
:101B60003918D8A4F7D737AE0CD0FF0E2E1AFF0EB7
:101B70002F1AFF0E301A010E2E26000E2F22000EF5
:101B8000302237AC0CD0FF0E311AFF0E321AFF0E86
:101B9000331A010E3126000E3222000E3322000EBF
:101BA000376E2E5031262F5032223050332233AE32
:101BB0000ED0FF0E311AFF0E321AFF0E331A010E2D
:101BC0003126000E3222000E3322010E376E31C054
:101BD00001F032C002F033C003F039C004F037C066
:101BE00005F003EC11F001C02EF002C02FF003C08D
:101BF00030F0120003C007F0086A096A02340736A1
:101C000001E3088007500F6E0F50D8A409D0000ED2
:101C1000016E000E026E000E036E000E046E1200C6
:101C200006C007F0086A096A0534073601E3088030
:101C300007500E6E0E50D8A409D0000E016E000E93
:101C4000026E000E036E000E046E1200028EFF0E76
:101C50000116FF0E0216000E0316058EFF0E041667
:101C6000FF0E0516000E0616000E0A6E000E0B6E15
:101C7000000E0C6E000E0D6E7F0E0F5E0E50980F54
:101C80000F5E180E0E6ED8900A360B360C360D36D7
:101C90000450015C0550025806500358D8A007D0E4
:101CA0000450015E0550025A0650035A0A80D8902B
:101CB0000136023603360E2EE6D70FAE16D00F5081
:101CC000800A970FD8B009D0000E016E000E026E88
:101CD000000E036E000E046E1200D8900D320C320E
:101CE0000B320A320F3EF9D715D0170E0F640FD002
:101CF000000E016E000E026E000E036E000E046EEA
:101D00001200D8900A360B360C360D360F060F50DF
:101D1000D8A4F7D70AC001F00BC002F00CC003F042
:101D20000DC004F01200033404340C6E0C50D8A41F
:101D300009D0000E016E000E026E000E036E000E42
:101D4000046E1200063407340B6E0B50D8A409D071
:101D5000000E016E000E026E000E036E000E046E89
:101D60001200038EFF0E0116FF0E0216FF0E031661
:101D7000000E0416068EFF0E0416FF0E0516FF0E4B
:101D80000616000E0716000E076E000E086E000EF7
:101D9000096E000E0A6E7F0E0C5E0B50A00F0C5EDB
:101DA000200E0B6ED8900736083609360A360450D6
:101DB000015C055002580650035807500458D8A03B
:101DC00009D00450015E0550025A0650035A0750CC
:101DD000045A0780D89001360236033604360B2E9B
:101DE000E1D70CAE16D00C50800A9F0FD8B009D0A6
:101DF000000E016E000E026E000E036E000E046EE9
:101E00001200D8900A320932083207320C3EF9D754
:101E100015D01F0E0C640FD0000E016E000E026E66
:101E2000000E036E000E046E1200D89007360836BE
:101E300009360A360C060C50D8A4F7D707C001F0B3
:101E400008C002F009C003F00AC004F0120017C075
:101E50001BF01C6A1D6A16341B3601E31C801B50E4
:101E60001E6E1E50D8A407D0000E156E000E166E02
:101E7000000E176E12001AC01BF01C6A1D6A19347E
:101E80001B3601E31C801B50236E2350D8A407D0BF
:101E9000000E156E000E166E000E176E1200235007
:101EA0007B0F1E2617C023F01A50231A800E23160C
:101EB000168E198EFF0E1816FF0E1916000E1A1622
:101EC000000E1F6E000E206E000E216E070E226E99
:101ED00015A006D018501F26195020221A50212272
:101EE000D890173216321532D890183619361A365D
:101EF000222EEED7090E226E15A006D018501F26EE
:101F0000195020221A502122D89017321632153239
:101F1000D890213220321F32222EEED71FC001F07E
:101F200020C002F021C003F01EC004F023C005F061
:101F300003EC11F001C015F002C016F003C017F059
:101F400012002DC02FF0306A316A2C342F3601E395
:101F500030802F50396E3950D8A409D0000E2B6E26
:101F6000000E2C6E000E2D6E000E2E6E1200170E3F
:101F70002F6E2BC030F02CC031F02DC032F02F2846
:101F8000336E04D0D890323231323032332EFAD719
:101F90003050346E2C8EFF0E2B16FF0E2C16000EBA
:101FA0002D162B50356E2C50366E2D50376E386AEC
:101FB0008E0E395E39AE16D03950800A8F0FD8B0E8
:101FC00009D0000E2B6E000E2C6E000E2D6E000E32
:101FD0002E6E1200D8903832373236323532393ED2
:101FE000F9D715D0170E39640FD0000E2B6E000EE6
:101FF0002C6E000E2D6E000E2E6E1200D89035360F
:1020000036363736383639063950D8A4F7D73450F3
:10201000D8B408D0381E371E361E356C000E362256
:102020003722382235C02BF036C02CF037C02DF0C7
:1020300038C02EF0120092EC13F038EC13F09BEC49
:1020400013F0000E056E010E046E000E076E010EF9
:10205000066E6CEC0AF0770E406E080E416E43EC93
:1020600004F0000E056E010E046E000E076E080EE1
:10207000066E6CEC0AF05EEC13F001C04EF002C08C
:102080004FF04EC009F04FC00AF0DEEC12F009C06C
:1020900050F00AC051F00BC052F050C015F051C0C2
:1020A00016F052C017F0000E186EA00E196E3B0EFF
:1020B0001A6E27EC0FF015C050F016C051F017C083
:1020C00052F050C009F051C00AF052C00BF0D70EC8
:1020D0000C6E230E0D6E3C0E0E6E90EC10F009C0CF
:1020E00050F00AC051F00BC052F0000E4B6E000EC3
:1020F0004C6E000E4D6EFA0E5118B3E1420E52189E
:102100005010D8A4AED77F0E406E080E416E50C05E
:1021100042F051C043F052C044F043EC04F0A1D768
:102120000BC00FF0106A116A0A340F3601E31080F9
:102130000F50166E1650D8A407D0000E096E000E70
:102140000A6E000E0B6E12000EC00FF0106A116ABC
:102150000D340F3601E310800F50176E1750D8A4BE
:1021600007D0000E096E000E0A6E000E0B6E1200F4
:10217000000E136E000E146E000E156E1750890FB0
:10218000165E0BC017F00E50171A800E17160A8E27
:10219000FF0E0916FF0E0A16000E0B160D8EFF0E0F
:1021A0000C16FF0E0D16000E0E16180E126ED8909D
:1021B0001336143615360C50095C0D500A580E5063
:1021C0000B58D8A007D00C50095E0D500A5A0E507B
:1021D0000B5A1380D89009360A360B36122EE7D7E1
:1021E00013C001F014C002F015C003F016C004F0D3
:1021F00017C005F003EC11F001C009F002C00AF0AD
:1022000003C00BF012000450D8B405D001500210E6
:102210000310D8A40CD0000E016E000E026E000E4A
:10222000036E1200042AD890033202320132000EEB
:102230000114066E000E0214076EFE0E0314086EE3
:10224000065007100810D8B40CD0ECD7042A010EA1
:102250000126000E0222000E0322D8900332023221
:102260000132000E0114066E000E0214076EFF0EFE
:102270000314086E065007100810D8B406D0E6D72D
:102280000406D89001360236033602BE03D0020E91
:102290000460F6D704A0029ED890043204500312C2
:1022A0000550D8A4038E01C001F002C002F003C0A3
:1022B00003F0120003AE16D001C007F002C008F010
:1022C00003C009F0071E081E091E072A000E082277
:1022D0000922000E0724016E000E0820026E800EF7
:1022E0000920036E06AE16D004C007F005C008F042
:1022F00006C009F0071E081E091E072A000E082244
:102300000922000E0724046E000E0820056E800EC0
:102310000920066E000E011A000E021A800E031A22
:10232000000E041A000E051A800E061A0450015CF5
:102330000550025806500358D8B002D0D890120069
:10234000D8801200000E0C6E0AAE06D0096C0A1E70
:10235000D8B00A2A010E0C6E08AE06D0076C081E13
:10236000D8B0082A010E0C1A000E0E6E000E0D6E6B
:1023700009500A10D8B41CD0010E0B6E04D0D890AE
:1023800009360A360B2A0AAEFAD7D8900D360E3621
:102390000950075C0A500858D8A005D00950075EBC
:1023A0000A50085A0D80D8900A3209320B2EEDD708
:1023B0000C50D8B404D00D6C0E1ED8B00E2A0DC02F
:1023C00007F00EC008F01200000E096E000E0A6E33
:1023D000000E0B6E000E0C6E055006100710081054
:1023E000D8B42AD0010E0D6E06D0D8900536063628
:1023F000073608360D2A08AEF8D7D89009360A36BF
:102400000B360C360550015C065002580750035835
:1024100008500458D8A009D00550015E0650025A51
:102420000750035A0850045A0980D89008320732DE
:10243000063205320D2EE1D709C001F00AC002F0C4
:102440000BC003F00CC004F01200000E066E02AECA
:1024500006D0016C021ED8B0022A010E066E04AE30
:1024600004D0036C041ED8B0042A03500410D8B45E
:1024700018D0010E056E04D0D89003360436052A14
:1024800004AEFAD70350015C04500258D8A004D01F
:102490000350015E0450025AD89004320332052ED4
:1024A000F1D70650D8B404D0016C021ED8B0022A6D
:1024B00001C001F002C002F0120005500610071022
:1024C0000810D8B424D0010E096E06D0D890053675
:1024D000063607360836092A08AEF8D70550015CDB
:1024E000065002580750035808500458D8A008D086
:1024F0000550015E0650025A0750035A0850045A0C
:10250000D8900832073206320532092EE7D701C0CB
:1025100001F002C002F003C003F004C004F0120096
:102520008E0E116E06D0D8900C320B320A32093260
:10253000112A000E09140D6E000E0A140E6E000E04
:102540000B140F6EFF0E0C14106E0D500E100F10AA
:102550001010D8A4E8D709C001F00AC002F00BC0DF
:1025600003F011C004F0000E056E03EC11F001C081
:1025700009F002C00AF003C00BF012003D503E10FB
:102580003F10D8B406D0000E3D1A000E3E1A800E41
:102590003F1A3AC02EF03BC02FF03CC030F03DC097
:1025A00031F03EC032F03FC033F024EC0DF02EC0CD
:1025B0003AF02FC03BF030C03CF01200000E0C6E21
:1025C0000AAE06D0096C0A1ED8B00A2A010E0C6E9B
:1025D00009C001F00AC002F0036A8E0E046E0CC03E
:1025E00005F003EC11F001C009F002C00AF003C0CD
:1025F0000BF012000FD0D59AD596D580D592D594F0
:10260000F294D58C000ED66ED58EF2A4FED70106BC
:10261000D8A0020602BE12000250EDE10104D8A0CB
:102620001200E9D7036E03C083FF82808282000E0E
:10263000026E010E016EFAEC12F08292000E026E32
:10264000010E016EFAEC12F012000F501102F3CFDE
:1026500013F0F4CF14F00F501202F3501426105060
:102660001102F350142613C00FF014C010F0120022
:10267000380E4BEC13F00C0E4BEC13F0060E4BEC3B
:1026800013F0010E4BEC13F0000E026E050E016EFE
:10269000FAEC12F01200036E03C083FF8290828274
:1026A000000E026E010E016EFAEC12F08292000E24
:1026B000026E010E016EFAEC12F01200C282C2B27A
:1026C000FED7C350C4CF03F0046A03C004F0036A0A
:1026D0000310056E0450066E05C001F006C002F03E
:1026E0001200015002100310D8B406D0000E011AD7
:1026F000000E021A800E031A01C001F002C002F09F
:1027000003C003F01200036E000E026E3A0E036067
:1027100005D02F0E036402D0010E026E02C001F03C
:1027200001301200700E946E000E956E000E826ED7
:10273000000E836E1200010EC26E0E0EC16E960E5A
:10274000C06E1200000EF86E00011BEF10F0046E58
:08275000045012EC13F012001A
:020000040020DA
:08000000FFFFFFFFFFFFFFFF00
:020000040030CA
:0E00000000001F1EFF8385FF0FC00FE00F40A2
:00000001FF
